{
  "contractName": "Animal",
  "abi": [
    {
      "inputs": [
        {
          "internalType": "address",
          "name": "ticketAddress",
          "type": "address"
        }
      ],
      "stateMutability": "nonpayable",
      "type": "constructor"
    },
    {
      "anonymous": false,
      "inputs": [
        {
          "indexed": true,
          "internalType": "address",
          "name": "owner",
          "type": "address"
        },
        {
          "indexed": true,
          "internalType": "address",
          "name": "approved",
          "type": "address"
        },
        {
          "indexed": true,
          "internalType": "uint256",
          "name": "tokenId",
          "type": "uint256"
        }
      ],
      "name": "Approval",
      "type": "event"
    },
    {
      "anonymous": false,
      "inputs": [
        {
          "indexed": true,
          "internalType": "address",
          "name": "owner",
          "type": "address"
        },
        {
          "indexed": true,
          "internalType": "address",
          "name": "operator",
          "type": "address"
        },
        {
          "indexed": false,
          "internalType": "bool",
          "name": "approved",
          "type": "bool"
        }
      ],
      "name": "ApprovalForAll",
      "type": "event"
    },
    {
      "anonymous": false,
      "inputs": [
        {
          "indexed": true,
          "internalType": "address",
          "name": "previousOwner",
          "type": "address"
        },
        {
          "indexed": true,
          "internalType": "address",
          "name": "newOwner",
          "type": "address"
        }
      ],
      "name": "OwnershipTransferred",
      "type": "event"
    },
    {
      "anonymous": false,
      "inputs": [
        {
          "indexed": true,
          "internalType": "address",
          "name": "from",
          "type": "address"
        },
        {
          "indexed": true,
          "internalType": "address",
          "name": "to",
          "type": "address"
        },
        {
          "indexed": true,
          "internalType": "uint256",
          "name": "tokenId",
          "type": "uint256"
        }
      ],
      "name": "Transfer",
      "type": "event"
    },
    {
      "inputs": [],
      "name": "MAX_SUPPLY",
      "outputs": [
        {
          "internalType": "uint256",
          "name": "",
          "type": "uint256"
        }
      ],
      "stateMutability": "view",
      "type": "function"
    },
    {
      "inputs": [
        {
          "internalType": "uint256",
          "name": "",
          "type": "uint256"
        }
      ],
      "name": "_availableTokens",
      "outputs": [
        {
          "internalType": "uint256",
          "name": "",
          "type": "uint256"
        }
      ],
      "stateMutability": "view",
      "type": "function"
    },
    {
      "inputs": [],
      "name": "_numAvailableTokens",
      "outputs": [
        {
          "internalType": "uint256",
          "name": "",
          "type": "uint256"
        }
      ],
      "stateMutability": "view",
      "type": "function"
    },
    {
      "inputs": [
        {
          "internalType": "address",
          "name": "to",
          "type": "address"
        },
        {
          "internalType": "uint256",
          "name": "tokenId",
          "type": "uint256"
        }
      ],
      "name": "approve",
      "outputs": [],
      "stateMutability": "nonpayable",
      "type": "function"
    },
    {
      "inputs": [
        {
          "internalType": "address",
          "name": "owner",
          "type": "address"
        }
      ],
      "name": "balanceOf",
      "outputs": [
        {
          "internalType": "uint256",
          "name": "",
          "type": "uint256"
        }
      ],
      "stateMutability": "view",
      "type": "function"
    },
    {
      "inputs": [
        {
          "internalType": "uint256",
          "name": "tokenId",
          "type": "uint256"
        }
      ],
      "name": "burn",
      "outputs": [],
      "stateMutability": "nonpayable",
      "type": "function"
    },
    {
      "inputs": [
        {
          "internalType": "uint256",
          "name": "tokenId",
          "type": "uint256"
        }
      ],
      "name": "getApproved",
      "outputs": [
        {
          "internalType": "address",
          "name": "",
          "type": "address"
        }
      ],
      "stateMutability": "view",
      "type": "function"
    },
    {
      "inputs": [
        {
          "internalType": "address",
          "name": "owner",
          "type": "address"
        },
        {
          "internalType": "address",
          "name": "operator",
          "type": "address"
        }
      ],
      "name": "isApprovedForAll",
      "outputs": [
        {
          "internalType": "bool",
          "name": "",
          "type": "bool"
        }
      ],
      "stateMutability": "view",
      "type": "function"
    },
    {
      "inputs": [],
      "name": "name",
      "outputs": [
        {
          "internalType": "string",
          "name": "",
          "type": "string"
        }
      ],
      "stateMutability": "view",
      "type": "function"
    },
    {
      "inputs": [],
      "name": "owner",
      "outputs": [
        {
          "internalType": "address",
          "name": "",
          "type": "address"
        }
      ],
      "stateMutability": "view",
      "type": "function"
    },
    {
      "inputs": [
        {
          "internalType": "uint256",
          "name": "tokenId",
          "type": "uint256"
        }
      ],
      "name": "ownerOf",
      "outputs": [
        {
          "internalType": "address",
          "name": "",
          "type": "address"
        }
      ],
      "stateMutability": "view",
      "type": "function"
    },
    {
      "inputs": [],
      "name": "renounceOwnership",
      "outputs": [],
      "stateMutability": "nonpayable",
      "type": "function"
    },
    {
      "inputs": [
        {
          "internalType": "address",
          "name": "from",
          "type": "address"
        },
        {
          "internalType": "address",
          "name": "to",
          "type": "address"
        },
        {
          "internalType": "uint256",
          "name": "tokenId",
          "type": "uint256"
        }
      ],
      "name": "safeTransferFrom",
      "outputs": [],
      "stateMutability": "nonpayable",
      "type": "function"
    },
    {
      "inputs": [
        {
          "internalType": "address",
          "name": "from",
          "type": "address"
        },
        {
          "internalType": "address",
          "name": "to",
          "type": "address"
        },
        {
          "internalType": "uint256",
          "name": "tokenId",
          "type": "uint256"
        },
        {
          "internalType": "bytes",
          "name": "data",
          "type": "bytes"
        }
      ],
      "name": "safeTransferFrom",
      "outputs": [],
      "stateMutability": "nonpayable",
      "type": "function"
    },
    {
      "inputs": [
        {
          "internalType": "address",
          "name": "operator",
          "type": "address"
        },
        {
          "internalType": "bool",
          "name": "approved",
          "type": "bool"
        }
      ],
      "name": "setApprovalForAll",
      "outputs": [],
      "stateMutability": "nonpayable",
      "type": "function"
    },
    {
      "inputs": [],
      "name": "symbol",
      "outputs": [
        {
          "internalType": "string",
          "name": "",
          "type": "string"
        }
      ],
      "stateMutability": "view",
      "type": "function"
    },
    {
      "inputs": [
        {
          "internalType": "uint256",
          "name": "index",
          "type": "uint256"
        }
      ],
      "name": "tokenByIndex",
      "outputs": [
        {
          "internalType": "uint256",
          "name": "",
          "type": "uint256"
        }
      ],
      "stateMutability": "view",
      "type": "function"
    },
    {
      "inputs": [
        {
          "internalType": "address",
          "name": "owner",
          "type": "address"
        },
        {
          "internalType": "uint256",
          "name": "index",
          "type": "uint256"
        }
      ],
      "name": "tokenOfOwnerByIndex",
      "outputs": [
        {
          "internalType": "uint256",
          "name": "",
          "type": "uint256"
        }
      ],
      "stateMutability": "view",
      "type": "function"
    },
    {
      "inputs": [],
      "name": "totalSupply",
      "outputs": [
        {
          "internalType": "uint256",
          "name": "",
          "type": "uint256"
        }
      ],
      "stateMutability": "view",
      "type": "function"
    },
    {
      "inputs": [
        {
          "internalType": "address",
          "name": "from",
          "type": "address"
        },
        {
          "internalType": "address",
          "name": "to",
          "type": "address"
        },
        {
          "internalType": "uint256",
          "name": "tokenId",
          "type": "uint256"
        }
      ],
      "name": "transferFrom",
      "outputs": [],
      "stateMutability": "nonpayable",
      "type": "function"
    },
    {
      "inputs": [
        {
          "internalType": "address",
          "name": "newOwner",
          "type": "address"
        }
      ],
      "name": "transferOwnership",
      "outputs": [],
      "stateMutability": "nonpayable",
      "type": "function"
    },
    {
      "inputs": [],
      "name": "mintAnimal",
      "outputs": [],
      "stateMutability": "nonpayable",
      "type": "function"
    },
    {
      "inputs": [
        {
          "internalType": "string",
          "name": "_newBaseURI",
          "type": "string"
        }
      ],
      "name": "setBaseURI",
      "outputs": [],
      "stateMutability": "nonpayable",
      "type": "function"
    },
    {
      "inputs": [
        {
          "internalType": "bool",
          "name": "_status",
          "type": "bool"
        }
      ],
      "name": "setBlindBoxOpened",
      "outputs": [],
      "stateMutability": "nonpayable",
      "type": "function"
    },
    {
      "inputs": [
        {
          "internalType": "uint256",
          "name": "tokenId",
          "type": "uint256"
        }
      ],
      "name": "tokenURI",
      "outputs": [
        {
          "internalType": "string",
          "name": "",
          "type": "string"
        }
      ],
      "stateMutability": "view",
      "type": "function"
    },
    {
      "inputs": [
        {
          "internalType": "uint256",
          "name": "indexToUse",
          "type": "uint256"
        },
        {
          "internalType": "uint256",
          "name": "updatedNumAvailableTokens",
          "type": "uint256"
        }
      ],
      "name": "getAvailableTokenAtIndex",
      "outputs": [
        {
          "internalType": "uint256",
          "name": "",
          "type": "uint256"
        }
      ],
      "stateMutability": "nonpayable",
      "type": "function"
    },
    {
      "inputs": [
        {
          "internalType": "bytes4",
          "name": "interfaceId",
          "type": "bytes4"
        }
      ],
      "name": "supportsInterface",
      "outputs": [
        {
          "internalType": "bool",
          "name": "",
          "type": "bool"
        }
      ],
      "stateMutability": "view",
      "type": "function"
    }
  ],
  "bytecode": "0x60a06040526014600d556014600f556000601160006101000a81548160ff0219169083151502179055506040518060600160405280603581526020016200406460359139601290805190602001906200005a929190620002ad565b503480156200006857600080fd5b50604051620040993803806200409983398181016040528101906200008e9190620003c7565b6040518060400160405280600681526020017f5469636b657400000000000000000000000000000000000000000000000000008152506040518060400160405280600481526020017f54494b5400000000000000000000000000000000000000000000000000000000815250816000908051906020019062000112929190620002ad565b5080600190805190602001906200012b929190620002ad565b5050506200014e62000142620001df60201b60201c565b620001e760201b60201c565b6001600c819055508073ffffffffffffffffffffffffffffffffffffffff1660808173ffffffffffffffffffffffffffffffffffffffff168152505060005b6014811015620001d757600e600090806001815401808255809150506001900390600052602060002001600090919091909150558080620001ce9062000432565b9150506200018d565b5050620004e3565b600033905090565b6000600a60009054906101000a900473ffffffffffffffffffffffffffffffffffffffff16905081600a60006101000a81548173ffffffffffffffffffffffffffffffffffffffff021916908373ffffffffffffffffffffffffffffffffffffffff1602179055508173ffffffffffffffffffffffffffffffffffffffff168173ffffffffffffffffffffffffffffffffffffffff167f8be0079c531659141344cd1fd0a4f28419497f9722a3daafe3b4186f6b6457e060405160405180910390a35050565b828054620002bb90620004ae565b90600052602060002090601f016020900481019282620002df57600085556200032b565b82601f10620002fa57805160ff19168380011785556200032b565b828001600101855582156200032b579182015b828111156200032a5782518255916020019190600101906200030d565b5b5090506200033a91906200033e565b5090565b5b80821115620003595760008160009055506001016200033f565b5090565b600080fd5b600073ffffffffffffffffffffffffffffffffffffffff82169050919050565b60006200038f8262000362565b9050919050565b620003a18162000382565b8114620003ad57600080fd5b50565b600081519050620003c18162000396565b92915050565b600060208284031215620003e057620003df6200035d565b5b6000620003f084828501620003b0565b91505092915050565b7f4e487b7100000000000000000000000000000000000000000000000000000000600052601160045260246000fd5b6000819050919050565b60006200043f8262000428565b91507fffffffffffffffffffffffffffffffffffffffffffffffffffffffffffffffff8203620004745762000473620003f9565b5b600182019050919050565b7f4e487b7100000000000000000000000000000000000000000000000000000000600052602260045260246000fd5b60006002820490506001821680620004c757607f821691505b602082108103620004dd57620004dc6200047f565b5b50919050565b608051613b68620004fc60003960005050613b686000f3fe608060405234801561001057600080fd5b50600436106101a95760003560e01c806370a08231116100f9578063b88d4fde11610097578063dbfa167b11610071578063dbfa167b146104ba578063e6a9e577146104ea578063e985e9c514610506578063f2fde38b14610536576101a9565b8063b88d4fde1461043e578063c87b56dd1461045a578063cc501c4a1461048a576101a9565b80638917b441116100d35780638917b441146103dc5780638da5cb5b146103e657806395d89b4114610404578063a22cb46514610422576101a9565b806370a0823114610384578063715018a6146103b457806379d81fd1146103be576101a9565b80632f745c591161016657806342966c681161014057806342966c68146102ec5780634f6ccce71461030857806355f804b3146103385780636352211e14610354576101a9565b80632f745c591461028257806332cb6b0c146102b257806342842e0e146102d0576101a9565b806301ffc9a7146101ae57806306fdde03146101de578063081812fc146101fc578063095ea7b31461022c57806318160ddd1461024857806323b872dd14610266575b600080fd5b6101c860048036038101906101c39190612695565b610552565b6040516101d591906126dd565b60405180910390f35b6101e6610564565b6040516101f39190612791565b60405180910390f35b610216600480360381019061021191906127e9565b6105f6565b6040516102239190612857565b60405180910390f35b6102466004803603810190610241919061289e565b61063c565b005b610250610753565b60405161025d91906128ed565b60405180910390f35b610280600480360381019061027b9190612908565b610760565b005b61029c6004803603810190610297919061289e565b6107c0565b6040516102a991906128ed565b60405180910390f35b6102ba610865565b6040516102c791906128ed565b60405180910390f35b6102ea60048036038101906102e59190612908565b61086b565b005b610306600480360381019061030191906127e9565b61088b565b005b610322600480360381019061031d91906127e9565b6108e7565b60405161032f91906128ed565b60405180910390f35b610352600480360381019061034d9190612a90565b610958565b005b61036e600480360381019061036991906127e9565b61097a565b60405161037b9190612857565b60405180910390f35b61039e60048036038101906103999190612ad9565b610a2b565b6040516103ab91906128ed565b60405180910390f35b6103bc610ae2565b005b6103c6610af6565b6040516103d391906128ed565b60405180910390f35b6103e4610afc565b005b6103ee610c15565b6040516103fb9190612857565b60405180910390f35b61040c610c3f565b6040516104199190612791565b60405180910390f35b61043c60048036038101906104379190612b32565b610cd1565b005b61045860048036038101906104539190612c13565b610ce7565b005b610474600480360381019061046f91906127e9565b610d49565b6040516104819190612791565b60405180910390f35b6104a4600480360381019061049f9190612c96565b610e99565b6040516104b191906128ed565b60405180910390f35b6104d460048036038101906104cf91906127e9565b610f97565b6040516104e191906128ed565b60405180910390f35b61050460048036038101906104ff9190612cd6565b610fbb565b005b610520600480360381019061051b9190612d03565b610fe0565b60405161052d91906126dd565b60405180910390f35b610550600480360381019061054b9190612ad9565b611074565b005b600061055d826110f7565b9050919050565b60606000805461057390612d72565b80601f016020809104026020016040519081016040528092919081815260200182805461059f90612d72565b80156105ec5780601f106105c1576101008083540402835291602001916105ec565b820191906000526020600020905b8154815290600101906020018083116105cf57829003601f168201915b5050505050905090565b600061060182611171565b6004600083815260200190815260200160002060009054906101000a900473ffffffffffffffffffffffffffffffffffffffff169050919050565b60006106478261097a565b90508073ffffffffffffffffffffffffffffffffffffffff168373ffffffffffffffffffffffffffffffffffffffff16036106b7576040517f08c379a00000000000000000000000000000000000000000000000000000000081526004016106ae90612e15565b60405180910390fd5b8073ffffffffffffffffffffffffffffffffffffffff166106d66111bc565b73ffffffffffffffffffffffffffffffffffffffff1614806107055750610704816106ff6111bc565b610fe0565b5b610744576040517f08c379a000000000000000000000000000000000000000000000000000000000815260040161073b90612ea7565b60405180910390fd5b61074e83836111c4565b505050565b6000600880549050905090565b61077161076b6111bc565b8261127d565b6107b0576040517f08c379a00000000000000000000000000000000000000000000000000000000081526004016107a790612f39565b60405180910390fd5b6107bb838383611312565b505050565b60006107cb83610a2b565b821061080c576040517f08c379a000000000000000000000000000000000000000000000000000000000815260040161080390612fcb565b60405180910390fd5b600660008473ffffffffffffffffffffffffffffffffffffffff1673ffffffffffffffffffffffffffffffffffffffff168152602001908152602001600020600083815260200190815260200160002054905092915050565b600d5481565b61088683838360405180602001604052806000815250610ce7565b505050565b61089c6108966111bc565b8261127d565b6108db576040517f08c379a00000000000000000000000000000000000000000000000000000000081526004016108d290612f39565b60405180910390fd5b6108e481611578565b50565b60006108f1610753565b8210610932576040517f08c379a00000000000000000000000000000000000000000000000000000000081526004016109299061305d565b60405180910390fd5b600882815481106109465761094561307d565b5b90600052602060002001549050919050565b610960611584565b8060109080519060200190610976929190612546565b5050565b6000806002600084815260200190815260200160002060009054906101000a900473ffffffffffffffffffffffffffffffffffffffff169050600073ffffffffffffffffffffffffffffffffffffffff168173ffffffffffffffffffffffffffffffffffffffff1603610a22576040517f08c379a0000000000000000000000000000000000000000000000000000000008152600401610a19906130f8565b60405180910390fd5b80915050919050565b60008073ffffffffffffffffffffffffffffffffffffffff168273ffffffffffffffffffffffffffffffffffffffff1603610a9b576040517f08c379a0000000000000000000000000000000000000000000000000000000008152600401610a929061318a565b60405180910390fd5b600360008373ffffffffffffffffffffffffffffffffffffffff1673ffffffffffffffffffffffffffffffffffffffff168152602001908152602001600020549050919050565b610aea611584565b610af46000611602565b565b600f5481565b6002600c5403610b41576040517f08c379a0000000000000000000000000000000000000000000000000000000008152600401610b38906131f6565b60405180910390fd5b6002600c81905550600d54610b54610753565b1115610b95576040517f08c379a0000000000000000000000000000000000000000000000000000000008152600401610b8c90613262565b60405180910390fd5b6000434433604051602001610bac93929190613282565b6040516020818303038152906040528051906020012060001c90506000600f5482610bd791906132e8565b90506000610be782600f54610e99565b9050610bf333826116c8565b6001600f54610c029190613348565b600f819055505050506001600c81905550565b6000600a60009054906101000a900473ffffffffffffffffffffffffffffffffffffffff16905090565b606060018054610c4e90612d72565b80601f0160208091040260200160405190810160405280929190818152602001828054610c7a90612d72565b8015610cc75780601f10610c9c57610100808354040283529160200191610cc7565b820191906000526020600020905b815481529060010190602001808311610caa57829003601f168201915b5050505050905090565b610ce3610cdc6111bc565b83836116e6565b5050565b610cf8610cf26111bc565b8361127d565b610d37576040517f08c379a0000000000000000000000000000000000000000000000000000000008152600401610d2e90612f39565b60405180910390fd5b610d4384848484611852565b50505050565b6060610d54826118ae565b610d93576040517f08c379a0000000000000000000000000000000000000000000000000000000008152600401610d8a906133ee565b60405180910390fd5b601160009054906101000a900460ff1615610e0657600060108054610db790612d72565b905011610dd35760405180602001604052806000815250610dff565b6010610dde8361191a565b604051602001610def92919061352a565b6040516020818303038152906040525b9050610e94565b60128054610e1390612d72565b80601f0160208091040260200160405190810160405280929190818152602001828054610e3f90612d72565b8015610e8c5780601f10610e6157610100808354040283529160200191610e8c565b820191906000526020600020905b815481529060010190602001808311610e6f57829003601f168201915b505050505090505b919050565b600080600e8481548110610eb057610eaf61307d565b5b906000526020600020015490506000808203610ece57849050610ed2565b8190505b6000600185610ee19190613348565b9050808614610f63576000600e8281548110610f0057610eff61307d565b5b9060005260206000200154905060008103610f3d5781600e8881548110610f2a57610f2961307d565b5b9060005260206000200181905550610f61565b80600e8881548110610f5257610f5161307d565b5b90600052602060002001819055505b505b600e805480610f7557610f74613559565b5b6001900381819060005260206000200160009055905581935050505092915050565b600e8181548110610fa757600080fd5b906000526020600020016000915090505481565b610fc3611584565b80601160006101000a81548160ff02191690831515021790555050565b6000600560008473ffffffffffffffffffffffffffffffffffffffff1673ffffffffffffffffffffffffffffffffffffffff16815260200190815260200160002060008373ffffffffffffffffffffffffffffffffffffffff1673ffffffffffffffffffffffffffffffffffffffff16815260200190815260200160002060009054906101000a900460ff16905092915050565b61107c611584565b600073ffffffffffffffffffffffffffffffffffffffff168173ffffffffffffffffffffffffffffffffffffffff16036110eb576040517f08c379a00000000000000000000000000000000000000000000000000000000081526004016110e2906135fa565b60405180910390fd5b6110f481611602565b50565b60007f780e9d63000000000000000000000000000000000000000000000000000000007bffffffffffffffffffffffffffffffffffffffffffffffffffffffff1916827bffffffffffffffffffffffffffffffffffffffffffffffffffffffff1916148061116a575061116982611a7a565b5b9050919050565b61117a816118ae565b6111b9576040517f08c379a00000000000000000000000000000000000000000000000000000000081526004016111b0906130f8565b60405180910390fd5b50565b600033905090565b816004600083815260200190815260200160002060006101000a81548173ffffffffffffffffffffffffffffffffffffffff021916908373ffffffffffffffffffffffffffffffffffffffff160217905550808273ffffffffffffffffffffffffffffffffffffffff166112378361097a565b73ffffffffffffffffffffffffffffffffffffffff167f8c5be1e5ebec7d5bd14f71427d1e84f3dd0314c0f7b2291e5b200ac8c7c3b92560405160405180910390a45050565b6000806112898361097a565b90508073ffffffffffffffffffffffffffffffffffffffff168473ffffffffffffffffffffffffffffffffffffffff1614806112cb57506112ca8185610fe0565b5b8061130957508373ffffffffffffffffffffffffffffffffffffffff166112f1846105f6565b73ffffffffffffffffffffffffffffffffffffffff16145b91505092915050565b8273ffffffffffffffffffffffffffffffffffffffff166113328261097a565b73ffffffffffffffffffffffffffffffffffffffff1614611388576040517f08c379a000000000000000000000000000000000000000000000000000000000815260040161137f9061368c565b60405180910390fd5b600073ffffffffffffffffffffffffffffffffffffffff168273ffffffffffffffffffffffffffffffffffffffff16036113f7576040517f08c379a00000000000000000000000000000000000000000000000000000000081526004016113ee9061371e565b60405180910390fd5b611402838383611b5c565b61140d6000826111c4565b6001600360008573ffffffffffffffffffffffffffffffffffffffff1673ffffffffffffffffffffffffffffffffffffffff168152602001908152602001600020600082825461145d9190613348565b925050819055506001600360008473ffffffffffffffffffffffffffffffffffffffff1673ffffffffffffffffffffffffffffffffffffffff16815260200190815260200160002060008282546114b4919061373e565b92505081905550816002600083815260200190815260200160002060006101000a81548173ffffffffffffffffffffffffffffffffffffffff021916908373ffffffffffffffffffffffffffffffffffffffff160217905550808273ffffffffffffffffffffffffffffffffffffffff168473ffffffffffffffffffffffffffffffffffffffff167fddf252ad1be2c89b69c2b068fc378daa952ba7f163c4a11628f55a4df523b3ef60405160405180910390a4611573838383611b6c565b505050565b61158181611b71565b50565b61158c6111bc565b73ffffffffffffffffffffffffffffffffffffffff166115aa610c15565b73ffffffffffffffffffffffffffffffffffffffff1614611600576040517f08c379a00000000000000000000000000000000000000000000000000000000081526004016115f7906137e0565b60405180910390fd5b565b6000600a60009054906101000a900473ffffffffffffffffffffffffffffffffffffffff16905081600a60006101000a81548173ffffffffffffffffffffffffffffffffffffffff021916908373ffffffffffffffffffffffffffffffffffffffff1602179055508173ffffffffffffffffffffffffffffffffffffffff168173ffffffffffffffffffffffffffffffffffffffff167f8be0079c531659141344cd1fd0a4f28419497f9722a3daafe3b4186f6b6457e060405160405180910390a35050565b6116e2828260405180602001604052806000815250611bc4565b5050565b8173ffffffffffffffffffffffffffffffffffffffff168373ffffffffffffffffffffffffffffffffffffffff1603611754576040517f08c379a000000000000000000000000000000000000000000000000000000000815260040161174b9061384c565b60405180910390fd5b80600560008573ffffffffffffffffffffffffffffffffffffffff1673ffffffffffffffffffffffffffffffffffffffff16815260200190815260200160002060008473ffffffffffffffffffffffffffffffffffffffff1673ffffffffffffffffffffffffffffffffffffffff16815260200190815260200160002060006101000a81548160ff0219169083151502179055508173ffffffffffffffffffffffffffffffffffffffff168373ffffffffffffffffffffffffffffffffffffffff167f17307eab39ab6107e8899845ad3d59bd9653f200f220920489ca2b5937696c318360405161184591906126dd565b60405180910390a3505050565b61185d848484611312565b61186984848484611c1f565b6118a8576040517f08c379a000000000000000000000000000000000000000000000000000000000815260040161189f906138de565b60405180910390fd5b50505050565b60008073ffffffffffffffffffffffffffffffffffffffff166002600084815260200190815260200160002060009054906101000a900473ffffffffffffffffffffffffffffffffffffffff1673ffffffffffffffffffffffffffffffffffffffff1614159050919050565b606060008203611961576040518060400160405280600181526020017f30000000000000000000000000000000000000000000000000000000000000008152509050611a75565b600082905060005b6000821461199357808061197c906138fe565b915050600a8261198c9190613946565b9150611969565b60008167ffffffffffffffff8111156119af576119ae612965565b5b6040519080825280601f01601f1916602001820160405280156119e15781602001600182028036833780820191505090505b5090505b60008514611a6e576001826119fa9190613348565b9150600a85611a0991906132e8565b6030611a15919061373e565b60f81b818381518110611a2b57611a2a61307d565b5b60200101907effffffffffffffffffffffffffffffffffffffffffffffffffffffffffffff1916908160001a905350600a85611a679190613946565b94506119e5565b8093505050505b919050565b60007f80ac58cd000000000000000000000000000000000000000000000000000000007bffffffffffffffffffffffffffffffffffffffffffffffffffffffff1916827bffffffffffffffffffffffffffffffffffffffffffffffffffffffff19161480611b4557507f5b5e139f000000000000000000000000000000000000000000000000000000007bffffffffffffffffffffffffffffffffffffffffffffffffffffffff1916827bffffffffffffffffffffffffffffffffffffffffffffffffffffffff1916145b80611b555750611b5482611da6565b5b9050919050565b611b67838383611e10565b505050565b505050565b611b7a81611f22565b6000600b60008381526020019081526020016000208054611b9a90612d72565b905014611bc157600b60008281526020019081526020016000206000611bc091906125cc565b5b50565b611bce838361203f565b611bdb6000848484611c1f565b611c1a576040517f08c379a0000000000000000000000000000000000000000000000000000000008152600401611c11906138de565b60405180910390fd5b505050565b6000611c408473ffffffffffffffffffffffffffffffffffffffff16612218565b15611d99578373ffffffffffffffffffffffffffffffffffffffff1663150b7a02611c696111bc565b8786866040518563ffffffff1660e01b8152600401611c8b94939291906139cc565b6020604051808303816000875af1925050508015611cc757506040513d601f19601f82011682018060405250810190611cc49190613a2d565b60015b611d49573d8060008114611cf7576040519150601f19603f3d011682016040523d82523d6000602084013e611cfc565b606091505b506000815103611d41576040517f08c379a0000000000000000000000000000000000000000000000000000000008152600401611d38906138de565b60405180910390fd5b805181602001fd5b63150b7a0260e01b7bffffffffffffffffffffffffffffffffffffffffffffffffffffffff1916817bffffffffffffffffffffffffffffffffffffffffffffffffffffffff191614915050611d9e565b600190505b949350505050565b60007f01ffc9a7000000000000000000000000000000000000000000000000000000007bffffffffffffffffffffffffffffffffffffffffffffffffffffffff1916827bffffffffffffffffffffffffffffffffffffffffffffffffffffffff1916149050919050565b611e1b83838361223b565b600073ffffffffffffffffffffffffffffffffffffffff168373ffffffffffffffffffffffffffffffffffffffff1603611e5d57611e5881612240565b611e9c565b8173ffffffffffffffffffffffffffffffffffffffff168373ffffffffffffffffffffffffffffffffffffffff1614611e9b57611e9a8382612289565b5b5b600073ffffffffffffffffffffffffffffffffffffffff168273ffffffffffffffffffffffffffffffffffffffff1603611ede57611ed9816123f6565b611f1d565b8273ffffffffffffffffffffffffffffffffffffffff168273ffffffffffffffffffffffffffffffffffffffff1614611f1c57611f1b82826124c7565b5b5b505050565b6000611f2d8261097a565b9050611f3b81600084611b5c565b611f466000836111c4565b6001600360008373ffffffffffffffffffffffffffffffffffffffff1673ffffffffffffffffffffffffffffffffffffffff1681526020019081526020016000206000828254611f969190613348565b925050819055506002600083815260200190815260200160002060006101000a81549073ffffffffffffffffffffffffffffffffffffffff021916905581600073ffffffffffffffffffffffffffffffffffffffff168273ffffffffffffffffffffffffffffffffffffffff167fddf252ad1be2c89b69c2b068fc378daa952ba7f163c4a11628f55a4df523b3ef60405160405180910390a461203b81600084611b6c565b5050565b600073ffffffffffffffffffffffffffffffffffffffff168273ffffffffffffffffffffffffffffffffffffffff16036120ae576040517f08c379a00000000000000000000000000000000000000000000000000000000081526004016120a590613aa6565b60405180910390fd5b6120b7816118ae565b156120f7576040517f08c379a00000000000000000000000000000000000000000000000000000000081526004016120ee90613b12565b60405180910390fd5b61210360008383611b5c565b6001600360008473ffffffffffffffffffffffffffffffffffffffff1673ffffffffffffffffffffffffffffffffffffffff1681526020019081526020016000206000828254612153919061373e565b92505081905550816002600083815260200190815260200160002060006101000a81548173ffffffffffffffffffffffffffffffffffffffff021916908373ffffffffffffffffffffffffffffffffffffffff160217905550808273ffffffffffffffffffffffffffffffffffffffff16600073ffffffffffffffffffffffffffffffffffffffff167fddf252ad1be2c89b69c2b068fc378daa952ba7f163c4a11628f55a4df523b3ef60405160405180910390a461221460008383611b6c565b5050565b6000808273ffffffffffffffffffffffffffffffffffffffff163b119050919050565b505050565b6008805490506009600083815260200190815260200160002081905550600881908060018154018082558091505060019003906000526020600020016000909190919091505550565b6000600161229684610a2b565b6122a09190613348565b9050600060076000848152602001908152602001600020549050818114612385576000600660008673ffffffffffffffffffffffffffffffffffffffff1673ffffffffffffffffffffffffffffffffffffffff168152602001908152602001600020600084815260200190815260200160002054905080600660008773ffffffffffffffffffffffffffffffffffffffff1673ffffffffffffffffffffffffffffffffffffffff168152602001908152602001600020600084815260200190815260200160002081905550816007600083815260200190815260200160002081905550505b6007600084815260200190815260200160002060009055600660008573ffffffffffffffffffffffffffffffffffffffff1673ffffffffffffffffffffffffffffffffffffffff16815260200190815260200160002060008381526020019081526020016000206000905550505050565b6000600160088054905061240a9190613348565b905060006009600084815260200190815260200160002054905060006008838154811061243a5761243961307d565b5b90600052602060002001549050806008838154811061245c5761245b61307d565b5b9060005260206000200181905550816009600083815260200190815260200160002081905550600960008581526020019081526020016000206000905560088054806124ab576124aa613559565b5b6001900381819060005260206000200160009055905550505050565b60006124d283610a2b565b905081600660008573ffffffffffffffffffffffffffffffffffffffff1673ffffffffffffffffffffffffffffffffffffffff168152602001908152602001600020600083815260200190815260200160002081905550806007600084815260200190815260200160002081905550505050565b82805461255290612d72565b90600052602060002090601f01602090048101928261257457600085556125bb565b82601f1061258d57805160ff19168380011785556125bb565b828001600101855582156125bb579182015b828111156125ba57825182559160200191906001019061259f565b5b5090506125c8919061260c565b5090565b5080546125d890612d72565b6000825580601f106125ea5750612609565b601f016020900490600052602060002090810190612608919061260c565b5b50565b5b8082111561262557600081600090555060010161260d565b5090565b6000604051905090565b600080fd5b600080fd5b60007fffffffff0000000000000000000000000000000000000000000000000000000082169050919050565b6126728161263d565b811461267d57600080fd5b50565b60008135905061268f81612669565b92915050565b6000602082840312156126ab576126aa612633565b5b60006126b984828501612680565b91505092915050565b60008115159050919050565b6126d7816126c2565b82525050565b60006020820190506126f260008301846126ce565b92915050565b600081519050919050565b600082825260208201905092915050565b60005b83811015612732578082015181840152602081019050612717565b83811115612741576000848401525b50505050565b6000601f19601f8301169050919050565b6000612763826126f8565b61276d8185612703565b935061277d818560208601612714565b61278681612747565b840191505092915050565b600060208201905081810360008301526127ab8184612758565b905092915050565b6000819050919050565b6127c6816127b3565b81146127d157600080fd5b50565b6000813590506127e3816127bd565b92915050565b6000602082840312156127ff576127fe612633565b5b600061280d848285016127d4565b91505092915050565b600073ffffffffffffffffffffffffffffffffffffffff82169050919050565b600061284182612816565b9050919050565b61285181612836565b82525050565b600060208201905061286c6000830184612848565b92915050565b61287b81612836565b811461288657600080fd5b50565b60008135905061289881612872565b92915050565b600080604083850312156128b5576128b4612633565b5b60006128c385828601612889565b92505060206128d4858286016127d4565b9150509250929050565b6128e7816127b3565b82525050565b600060208201905061290260008301846128de565b92915050565b60008060006060848603121561292157612920612633565b5b600061292f86828701612889565b935050602061294086828701612889565b9250506040612951868287016127d4565b9150509250925092565b600080fd5b600080fd5b7f4e487b7100000000000000000000000000000000000000000000000000000000600052604160045260246000fd5b61299d82612747565b810181811067ffffffffffffffff821117156129bc576129bb612965565b5b80604052505050565b60006129cf612629565b90506129db8282612994565b919050565b600067ffffffffffffffff8211156129fb576129fa612965565b5b612a0482612747565b9050602081019050919050565b82818337600083830152505050565b6000612a33612a2e846129e0565b6129c5565b905082815260208101848484011115612a4f57612a4e612960565b5b612a5a848285612a11565b509392505050565b600082601f830112612a7757612a7661295b565b5b8135612a87848260208601612a20565b91505092915050565b600060208284031215612aa657612aa5612633565b5b600082013567ffffffffffffffff811115612ac457612ac3612638565b5b612ad084828501612a62565b91505092915050565b600060208284031215612aef57612aee612633565b5b6000612afd84828501612889565b91505092915050565b612b0f816126c2565b8114612b1a57600080fd5b50565b600081359050612b2c81612b06565b92915050565b60008060408385031215612b4957612b48612633565b5b6000612b5785828601612889565b9250506020612b6885828601612b1d565b9150509250929050565b600067ffffffffffffffff821115612b8d57612b8c612965565b5b612b9682612747565b9050602081019050919050565b6000612bb6612bb184612b72565b6129c5565b905082815260208101848484011115612bd257612bd1612960565b5b612bdd848285612a11565b509392505050565b600082601f830112612bfa57612bf961295b565b5b8135612c0a848260208601612ba3565b91505092915050565b60008060008060808587031215612c2d57612c2c612633565b5b6000612c3b87828801612889565b9450506020612c4c87828801612889565b9350506040612c5d878288016127d4565b925050606085013567ffffffffffffffff811115612c7e57612c7d612638565b5b612c8a87828801612be5565b91505092959194509250565b60008060408385031215612cad57612cac612633565b5b6000612cbb858286016127d4565b9250506020612ccc858286016127d4565b9150509250929050565b600060208284031215612cec57612ceb612633565b5b6000612cfa84828501612b1d565b91505092915050565b60008060408385031215612d1a57612d19612633565b5b6000612d2885828601612889565b9250506020612d3985828601612889565b9150509250929050565b7f4e487b7100000000000000000000000000000000000000000000000000000000600052602260045260246000fd5b60006002820490506001821680612d8a57607f821691505b602082108103612d9d57612d9c612d43565b5b50919050565b7f4552433732313a20617070726f76616c20746f2063757272656e74206f776e6560008201527f7200000000000000000000000000000000000000000000000000000000000000602082015250565b6000612dff602183612703565b9150612e0a82612da3565b604082019050919050565b60006020820190508181036000830152612e2e81612df2565b9050919050565b7f4552433732313a20617070726f76652063616c6c6572206973206e6f7420746f60008201527f6b656e206f776e6572206e6f7220617070726f76656420666f7220616c6c0000602082015250565b6000612e91603e83612703565b9150612e9c82612e35565b604082019050919050565b60006020820190508181036000830152612ec081612e84565b9050919050565b7f4552433732313a2063616c6c6572206973206e6f7420746f6b656e206f776e6560008201527f72206e6f7220617070726f766564000000000000000000000000000000000000602082015250565b6000612f23602e83612703565b9150612f2e82612ec7565b604082019050919050565b60006020820190508181036000830152612f5281612f16565b9050919050565b7f455243373231456e756d657261626c653a206f776e657220696e646578206f7560008201527f74206f6620626f756e6473000000000000000000000000000000000000000000602082015250565b6000612fb5602b83612703565b9150612fc082612f59565b604082019050919050565b60006020820190508181036000830152612fe481612fa8565b9050919050565b7f455243373231456e756d657261626c653a20676c6f62616c20696e646578206f60008201527f7574206f6620626f756e64730000000000000000000000000000000000000000602082015250565b6000613047602c83612703565b915061305282612feb565b604082019050919050565b600060208201905081810360008301526130768161303a565b9050919050565b7f4e487b7100000000000000000000000000000000000000000000000000000000600052603260045260246000fd5b7f4552433732313a20696e76616c696420746f6b656e2049440000000000000000600082015250565b60006130e2601883612703565b91506130ed826130ac565b602082019050919050565b60006020820190508181036000830152613111816130d5565b9050919050565b7f4552433732313a2061646472657373207a65726f206973206e6f74206120766160008201527f6c6964206f776e65720000000000000000000000000000000000000000000000602082015250565b6000613174602983612703565b915061317f82613118565b604082019050919050565b600060208201905081810360008301526131a381613167565b9050919050565b7f5265656e7472616e637947756172643a207265656e7472616e742063616c6c00600082015250565b60006131e0601f83612703565b91506131eb826131aa565b602082019050919050565b6000602082019050818103600083015261320f816131d3565b9050919050565b7f457863656564204d617820537570706c79000000000000000000000000000000600082015250565b600061324c601183612703565b915061325782613216565b602082019050919050565b6000602082019050818103600083015261327b8161323f565b9050919050565b600060608201905061329760008301866128de565b6132a460208301856128de565b6132b16040830184612848565b949350505050565b7f4e487b7100000000000000000000000000000000000000000000000000000000600052601260045260246000fd5b60006132f3826127b3565b91506132fe836127b3565b92508261330e5761330d6132b9565b5b828206905092915050565b7f4e487b7100000000000000000000000000000000000000000000000000000000600052601160045260246000fd5b6000613353826127b3565b915061335e836127b3565b92508282101561337157613370613319565b5b828203905092915050565b7f4552433732314d657461646174613a2055524920717565727920666f72206e6f60008201527f6e6578697374656e7420746f6b656e0000000000000000000000000000000000602082015250565b60006133d8602f83612703565b91506133e38261337c565b604082019050919050565b60006020820190508181036000830152613407816133cb565b9050919050565b600081905092915050565b60008190508160005260206000209050919050565b6000815461343b81612d72565b613445818661340e565b945060018216600081146134605760018114613471576134a4565b60ff198316865281860193506134a4565b61347a85613419565b60005b8381101561349c5781548189015260018201915060208101905061347d565b838801955050505b50505092915050565b60006134b8826126f8565b6134c2818561340e565b93506134d2818560208601612714565b80840191505092915050565b7f2e6a736f6e000000000000000000000000000000000000000000000000000000600082015250565b600061351460058361340e565b915061351f826134de565b600582019050919050565b6000613536828561342e565b915061354282846134ad565b915061354d82613507565b91508190509392505050565b7f4e487b7100000000000000000000000000000000000000000000000000000000600052603160045260246000fd5b7f4f776e61626c653a206e6577206f776e657220697320746865207a65726f206160008201527f6464726573730000000000000000000000000000000000000000000000000000602082015250565b60006135e4602683612703565b91506135ef82613588565b604082019050919050565b60006020820190508181036000830152613613816135d7565b9050919050565b7f4552433732313a207472616e736665722066726f6d20696e636f72726563742060008201527f6f776e6572000000000000000000000000000000000000000000000000000000602082015250565b6000613676602583612703565b91506136818261361a565b604082019050919050565b600060208201905081810360008301526136a581613669565b9050919050565b7f4552433732313a207472616e7366657220746f20746865207a65726f2061646460008201527f7265737300000000000000000000000000000000000000000000000000000000602082015250565b6000613708602483612703565b9150613713826136ac565b604082019050919050565b60006020820190508181036000830152613737816136fb565b9050919050565b6000613749826127b3565b9150613754836127b3565b9250827fffffffffffffffffffffffffffffffffffffffffffffffffffffffffffffffff0382111561378957613788613319565b5b828201905092915050565b7f4f776e61626c653a2063616c6c6572206973206e6f7420746865206f776e6572600082015250565b60006137ca602083612703565b91506137d582613794565b602082019050919050565b600060208201905081810360008301526137f9816137bd565b9050919050565b7f4552433732313a20617070726f766520746f2063616c6c657200000000000000600082015250565b6000613836601983612703565b915061384182613800565b602082019050919050565b6000602082019050818103600083015261386581613829565b9050919050565b7f4552433732313a207472616e7366657220746f206e6f6e20455243373231526560008201527f63656976657220696d706c656d656e7465720000000000000000000000000000602082015250565b60006138c8603283612703565b91506138d38261386c565b604082019050919050565b600060208201905081810360008301526138f7816138bb565b9050919050565b6000613909826127b3565b91507fffffffffffffffffffffffffffffffffffffffffffffffffffffffffffffffff820361393b5761393a613319565b5b600182019050919050565b6000613951826127b3565b915061395c836127b3565b92508261396c5761396b6132b9565b5b828204905092915050565b600081519050919050565b600082825260208201905092915050565b600061399e82613977565b6139a88185613982565b93506139b8818560208601612714565b6139c181612747565b840191505092915050565b60006080820190506139e16000830187612848565b6139ee6020830186612848565b6139fb60408301856128de565b8181036060830152613a0d8184613993565b905095945050505050565b600081519050613a2781612669565b92915050565b600060208284031215613a4357613a42612633565b5b6000613a5184828501613a18565b91505092915050565b7f4552433732313a206d696e7420746f20746865207a65726f2061646472657373600082015250565b6000613a90602083612703565b9150613a9b82613a5a565b602082019050919050565b60006020820190508181036000830152613abf81613a83565b9050919050565b7f4552433732313a20746f6b656e20616c7265616479206d696e74656400000000600082015250565b6000613afc601c83612703565b9150613b0782613ac6565b602082019050919050565b60006020820190508181036000830152613b2b81613aef565b905091905056fea2646970667358221220307be2c0b4b4bfd501f6601a62dc21d1c3300cfe8fa3dec0f870b97d4ab8a1c364736f6c634300080e0033697066733a2f2f516d66544147397a56443731355138474d65513238323964734a684b76464653386d5058366244384a6b39413554",
  "immutableReferences": {},
  "source": "// SPDX-License-Identifier: MIT\npragma solidity ^0.8.4;\n\nimport \"@openzeppelin/contracts/token/ERC721/ERC721.sol\";\nimport \"@openzeppelin/contracts/token/ERC721/extensions/ERC721Enumerable.sol\";\nimport \"@openzeppelin/contracts/token/ERC721/extensions/ERC721Burnable.sol\";\nimport \"@openzeppelin/contracts/token/ERC721/extensions/ERC721URIStorage.sol\";\nimport \"@openzeppelin/contracts/access/Ownable.sol\";\nimport \"@openzeppelin/contracts/token/ERC20/ERC20.sol\";\nimport \"@openzeppelin/contracts/utils/cryptography/MerkleProof.sol\";\nimport \"@openzeppelin/contracts/security/ReentrancyGuard.sol\";\n\nabstract contract Ticket {\n    function burnTicketForAddress(uint256 typeId, uint256 amount, address burnTokenAddress)\n        external\n        virtual;\n\n    function balanceOf(address account, uint256 id)\n        public\n        view\n        virtual\n        returns (uint256);\n}\n\ncontract Animal is ERC721, ERC721Enumerable, ERC721Burnable, Ownable, ERC721URIStorage, ReentrancyGuard {\n    Ticket private immutable ticket;\n    uint256 constant _totalSupply = 20;\n    uint256 public MAX_SUPPLY = 20;\n    uint[] public _availableTokens;\n    uint256 public _numAvailableTokens = 20;\n\n    string baseURI;\n\n    constructor(address ticketAddress) ERC721(\"Ticket\", \"TIKT\") {\n        ticket = Ticket(ticketAddress);\n        for(uint i = 0; i<_totalSupply ; i++ ){\n            _availableTokens.push(0);\n        }\n    }\n\n    function mintAnimal() external nonReentrant{\n        // require(\n        //     this.ownerOf(_token_id) == msg.sender, \"not token owner\"\n        // );\n        require(totalSupply() <= MAX_SUPPLY, \"Exceed Max Supply\");\n\n        uint256 randomNum = uint256(keccak256(abi.encode(block.number, block.difficulty, msg.sender)));\n        uint256 randomIndex = randomNum % _numAvailableTokens;\n        uint256 result = getAvailableTokenAtIndex(randomIndex, _numAvailableTokens);\n        // uint256 tokenId = totalSupply() + 1;\n        // ticket.burnTicketForAddress(0, 1, ticket.balanceOf(msg.sender));\n        _safeMint(msg.sender, result);\n        _numAvailableTokens = _numAvailableTokens - 1;\n    }\n\n    \n    function setBaseURI(string memory _newBaseURI) public onlyOwner {\n        baseURI = _newBaseURI;\n    }\n\n\n    using Strings for uint256;\n    bool private _blindBoxOpened = false;\n    string private _blindTokenURI =\n        \"ipfs://QmfTAG9zVD715Q8GMeQ2829dsJhKvFFS8mPX6bD8Jk9A5T\";\n\n    function _isBlindBoxOpened() internal view returns (bool) {\n        return _blindBoxOpened;\n    }\n\n    function setBlindBoxOpened(bool _status) public onlyOwner {\n        _blindBoxOpened = _status;\n    }\n\n    // this function controls how the token URI is constructed\n    function tokenURI(uint256 tokenId)\n        public\n        view\n        virtual\n        override(ERC721, ERC721URIStorage)\n        returns (string memory)\n    {\n        require(\n            _exists(tokenId),\n            \"ERC721Metadata: URI query for nonexistent token\"\n        );\n        if (_blindBoxOpened) {\n            // string memory baseURI = _baseURI();\n            return\n                bytes(baseURI).length > 0\n                    ? string(\n                        abi.encodePacked(baseURI, tokenId.toString(), \".json\")\n                    )\n                    : \"\";\n        } else {\n            return _blindTokenURI;\n        }\n    }\n\n    function getAvailableTokenAtIndex(uint256 indexToUse, uint updatedNumAvailableTokens)\n        public\n        returns (uint256)\n    {\n        uint256 valAtIndex = _availableTokens[indexToUse];\n        uint256 result;\n        if (valAtIndex == 0) {\n            // This means the index itself is still an available token\n            result = indexToUse;\n        } else {\n            // This means the index itself is not an available token, but the val at that index is.\n            result = valAtIndex;\n        }\n\n        uint256 lastIndex = updatedNumAvailableTokens - 1;\n        if (indexToUse != lastIndex) {\n            // Replace the value at indexToUse, now that it's been used.\n            // Replace it with the data from the last index in the array, since we are going to decrease the array size afterwards.\n            uint256 lastValInArray = _availableTokens[lastIndex];\n            if (lastValInArray == 0) {\n                // This means the index itself is still an available token\n                _availableTokens[indexToUse] = lastIndex;\n            } else {\n                // This means the index itself is not an available token, but the val at that index is.\n                _availableTokens[indexToUse] = lastValInArray;\n                // Gas refund courtsey of @dievardump\n            }\n            \n        }\n        _availableTokens.pop();\n        \n        return result;\n    }\n\n    function _burn(uint256 tokenId) internal override(ERC721, ERC721URIStorage) {\n        super._burn(tokenId);\n    }\n\n    function supportsInterface(bytes4 interfaceId)\n        public\n        view\n        override(ERC721, ERC721Enumerable)\n        returns (bool)\n    {\n        return super.supportsInterface(interfaceId);\n    }\n\n    function _beforeTokenTransfer(address from, address to, uint256 tokenId)\n        internal\n        override(ERC721, ERC721Enumerable)\n    {\n        super._beforeTokenTransfer(from, to, tokenId);\n    }\n\n\n}",
  "sourcePath": "/Users/karenachung/Desktop/nft-zoo-ticket/contracts/Animal.sol",
  "compiler": {
    "name": "solc",
    "version": "0.8.14+commit.80d49f37.Emscripten.clang"
  },
  "schemaVersion": "3.4.7",
  "updatedAt": "2022-06-30T04:00:20.995Z",
  "devdoc": {
    "kind": "dev",
    "methods": {
      "approve(address,uint256)": {
        "details": "See {IERC721-approve}."
      },
      "balanceOf(address)": {
        "details": "See {IERC721-balanceOf}."
      },
      "burn(uint256)": {
        "details": "Burns `tokenId`. See {ERC721-_burn}. Requirements: - The caller must own `tokenId` or be an approved operator."
      },
      "getApproved(uint256)": {
        "details": "See {IERC721-getApproved}."
      },
      "isApprovedForAll(address,address)": {
        "details": "See {IERC721-isApprovedForAll}."
      },
      "name()": {
        "details": "See {IERC721Metadata-name}."
      },
      "owner()": {
        "details": "Returns the address of the current owner."
      },
      "ownerOf(uint256)": {
        "details": "See {IERC721-ownerOf}."
      },
      "renounceOwnership()": {
        "details": "Leaves the contract without owner. It will not be possible to call `onlyOwner` functions anymore. Can only be called by the current owner. NOTE: Renouncing ownership will leave the contract without an owner, thereby removing any functionality that is only available to the owner."
      },
      "safeTransferFrom(address,address,uint256)": {
        "details": "See {IERC721-safeTransferFrom}."
      },
      "safeTransferFrom(address,address,uint256,bytes)": {
        "details": "See {IERC721-safeTransferFrom}."
      },
      "setApprovalForAll(address,bool)": {
        "details": "See {IERC721-setApprovalForAll}."
      },
      "symbol()": {
        "details": "See {IERC721Metadata-symbol}."
      },
      "tokenByIndex(uint256)": {
        "details": "See {IERC721Enumerable-tokenByIndex}."
      },
      "tokenOfOwnerByIndex(address,uint256)": {
        "details": "See {IERC721Enumerable-tokenOfOwnerByIndex}."
      },
      "totalSupply()": {
        "details": "See {IERC721Enumerable-totalSupply}."
      },
      "transferFrom(address,address,uint256)": {
        "details": "See {IERC721-transferFrom}."
      },
      "transferOwnership(address)": {
        "details": "Transfers ownership of the contract to a new account (`newOwner`). Can only be called by the current owner."
      }
    },
    "version": 1
  },
  "userdoc": {
    "kind": "user",
    "methods": {},
    "version": 1
  }
}