{
  "contractName": "Ticket",
  "abi": [
    {
      "inputs": [
        {
          "internalType": "address",
          "name": "tokenAddress",
          "type": "address"
        },
        {
          "internalType": "string",
          "name": "initBaseURI",
          "type": "string"
        }
      ],
      "stateMutability": "nonpayable",
      "type": "constructor"
    },
    {
      "anonymous": false,
      "inputs": [
        {
          "indexed": true,
          "internalType": "address",
          "name": "account",
          "type": "address"
        },
        {
          "indexed": true,
          "internalType": "address",
          "name": "operator",
          "type": "address"
        },
        {
          "indexed": false,
          "internalType": "bool",
          "name": "approved",
          "type": "bool"
        }
      ],
      "name": "ApprovalForAll",
      "type": "event"
    },
    {
      "anonymous": false,
      "inputs": [
        {
          "indexed": true,
          "internalType": "address",
          "name": "previousOwner",
          "type": "address"
        },
        {
          "indexed": true,
          "internalType": "address",
          "name": "newOwner",
          "type": "address"
        }
      ],
      "name": "OwnershipTransferred",
      "type": "event"
    },
    {
      "anonymous": false,
      "inputs": [
        {
          "indexed": false,
          "internalType": "address",
          "name": "account",
          "type": "address"
        }
      ],
      "name": "Paused",
      "type": "event"
    },
    {
      "anonymous": false,
      "inputs": [
        {
          "indexed": true,
          "internalType": "address",
          "name": "operator",
          "type": "address"
        },
        {
          "indexed": true,
          "internalType": "address",
          "name": "from",
          "type": "address"
        },
        {
          "indexed": true,
          "internalType": "address",
          "name": "to",
          "type": "address"
        },
        {
          "indexed": false,
          "internalType": "uint256[]",
          "name": "ids",
          "type": "uint256[]"
        },
        {
          "indexed": false,
          "internalType": "uint256[]",
          "name": "values",
          "type": "uint256[]"
        }
      ],
      "name": "TransferBatch",
      "type": "event"
    },
    {
      "anonymous": false,
      "inputs": [
        {
          "indexed": true,
          "internalType": "address",
          "name": "operator",
          "type": "address"
        },
        {
          "indexed": true,
          "internalType": "address",
          "name": "from",
          "type": "address"
        },
        {
          "indexed": true,
          "internalType": "address",
          "name": "to",
          "type": "address"
        },
        {
          "indexed": false,
          "internalType": "uint256",
          "name": "id",
          "type": "uint256"
        },
        {
          "indexed": false,
          "internalType": "uint256",
          "name": "value",
          "type": "uint256"
        }
      ],
      "name": "TransferSingle",
      "type": "event"
    },
    {
      "anonymous": false,
      "inputs": [
        {
          "indexed": false,
          "internalType": "string",
          "name": "value",
          "type": "string"
        },
        {
          "indexed": true,
          "internalType": "uint256",
          "name": "id",
          "type": "uint256"
        }
      ],
      "name": "URI",
      "type": "event"
    },
    {
      "anonymous": false,
      "inputs": [
        {
          "indexed": false,
          "internalType": "address",
          "name": "account",
          "type": "address"
        }
      ],
      "name": "Unpaused",
      "type": "event"
    },
    {
      "inputs": [],
      "name": "MAX_SUPPLY",
      "outputs": [
        {
          "internalType": "uint256",
          "name": "",
          "type": "uint256"
        }
      ],
      "stateMutability": "view",
      "type": "function"
    },
    {
      "inputs": [],
      "name": "_isSaleActive",
      "outputs": [
        {
          "internalType": "bool",
          "name": "",
          "type": "bool"
        }
      ],
      "stateMutability": "view",
      "type": "function"
    },
    {
      "inputs": [],
      "name": "_numAvailableTokens",
      "outputs": [
        {
          "internalType": "uint256",
          "name": "",
          "type": "uint256"
        }
      ],
      "stateMutability": "view",
      "type": "function"
    },
    {
      "inputs": [],
      "name": "_revealed",
      "outputs": [
        {
          "internalType": "bool",
          "name": "",
          "type": "bool"
        }
      ],
      "stateMutability": "view",
      "type": "function"
    },
    {
      "inputs": [
        {
          "internalType": "address",
          "name": "account",
          "type": "address"
        },
        {
          "internalType": "uint256",
          "name": "id",
          "type": "uint256"
        }
      ],
      "name": "balanceOf",
      "outputs": [
        {
          "internalType": "uint256",
          "name": "",
          "type": "uint256"
        }
      ],
      "stateMutability": "view",
      "type": "function"
    },
    {
      "inputs": [
        {
          "internalType": "address[]",
          "name": "accounts",
          "type": "address[]"
        },
        {
          "internalType": "uint256[]",
          "name": "ids",
          "type": "uint256[]"
        }
      ],
      "name": "balanceOfBatch",
      "outputs": [
        {
          "internalType": "uint256[]",
          "name": "",
          "type": "uint256[]"
        }
      ],
      "stateMutability": "view",
      "type": "function"
    },
    {
      "inputs": [],
      "name": "baseExtension",
      "outputs": [
        {
          "internalType": "string",
          "name": "",
          "type": "string"
        }
      ],
      "stateMutability": "view",
      "type": "function"
    },
    {
      "inputs": [
        {
          "internalType": "address",
          "name": "account",
          "type": "address"
        },
        {
          "internalType": "uint256",
          "name": "id",
          "type": "uint256"
        },
        {
          "internalType": "uint256",
          "name": "value",
          "type": "uint256"
        }
      ],
      "name": "burn",
      "outputs": [],
      "stateMutability": "nonpayable",
      "type": "function"
    },
    {
      "inputs": [
        {
          "internalType": "address",
          "name": "account",
          "type": "address"
        },
        {
          "internalType": "uint256[]",
          "name": "ids",
          "type": "uint256[]"
        },
        {
          "internalType": "uint256[]",
          "name": "values",
          "type": "uint256[]"
        }
      ],
      "name": "burnBatch",
      "outputs": [],
      "stateMutability": "nonpayable",
      "type": "function"
    },
    {
      "inputs": [
        {
          "internalType": "address",
          "name": "account",
          "type": "address"
        },
        {
          "internalType": "address",
          "name": "operator",
          "type": "address"
        }
      ],
      "name": "isApprovedForAll",
      "outputs": [
        {
          "internalType": "bool",
          "name": "",
          "type": "bool"
        }
      ],
      "stateMutability": "view",
      "type": "function"
    },
    {
      "inputs": [],
      "name": "maxBalance",
      "outputs": [
        {
          "internalType": "uint256",
          "name": "",
          "type": "uint256"
        }
      ],
      "stateMutability": "view",
      "type": "function"
    },
    {
      "inputs": [],
      "name": "maxMint",
      "outputs": [
        {
          "internalType": "uint256",
          "name": "",
          "type": "uint256"
        }
      ],
      "stateMutability": "view",
      "type": "function"
    },
    {
      "inputs": [],
      "name": "mintPrice",
      "outputs": [
        {
          "internalType": "uint256",
          "name": "",
          "type": "uint256"
        }
      ],
      "stateMutability": "view",
      "type": "function"
    },
    {
      "inputs": [],
      "name": "notRevealedUri",
      "outputs": [
        {
          "internalType": "string",
          "name": "",
          "type": "string"
        }
      ],
      "stateMutability": "view",
      "type": "function"
    },
    {
      "inputs": [],
      "name": "owner",
      "outputs": [
        {
          "internalType": "address",
          "name": "",
          "type": "address"
        }
      ],
      "stateMutability": "view",
      "type": "function"
    },
    {
      "inputs": [],
      "name": "paused",
      "outputs": [
        {
          "internalType": "bool",
          "name": "",
          "type": "bool"
        }
      ],
      "stateMutability": "view",
      "type": "function"
    },
    {
      "inputs": [],
      "name": "renounceOwnership",
      "outputs": [],
      "stateMutability": "nonpayable",
      "type": "function"
    },
    {
      "inputs": [
        {
          "internalType": "address",
          "name": "from",
          "type": "address"
        },
        {
          "internalType": "address",
          "name": "to",
          "type": "address"
        },
        {
          "internalType": "uint256[]",
          "name": "ids",
          "type": "uint256[]"
        },
        {
          "internalType": "uint256[]",
          "name": "amounts",
          "type": "uint256[]"
        },
        {
          "internalType": "bytes",
          "name": "data",
          "type": "bytes"
        }
      ],
      "name": "safeBatchTransferFrom",
      "outputs": [],
      "stateMutability": "nonpayable",
      "type": "function"
    },
    {
      "inputs": [
        {
          "internalType": "address",
          "name": "from",
          "type": "address"
        },
        {
          "internalType": "address",
          "name": "to",
          "type": "address"
        },
        {
          "internalType": "uint256",
          "name": "id",
          "type": "uint256"
        },
        {
          "internalType": "uint256",
          "name": "amount",
          "type": "uint256"
        },
        {
          "internalType": "bytes",
          "name": "data",
          "type": "bytes"
        }
      ],
      "name": "safeTransferFrom",
      "outputs": [],
      "stateMutability": "nonpayable",
      "type": "function"
    },
    {
      "inputs": [
        {
          "internalType": "address",
          "name": "operator",
          "type": "address"
        },
        {
          "internalType": "bool",
          "name": "approved",
          "type": "bool"
        }
      ],
      "name": "setApprovalForAll",
      "outputs": [],
      "stateMutability": "nonpayable",
      "type": "function"
    },
    {
      "inputs": [
        {
          "internalType": "bytes4",
          "name": "interfaceId",
          "type": "bytes4"
        }
      ],
      "name": "supportsInterface",
      "outputs": [
        {
          "internalType": "bool",
          "name": "",
          "type": "bool"
        }
      ],
      "stateMutability": "view",
      "type": "function"
    },
    {
      "inputs": [],
      "name": "token",
      "outputs": [
        {
          "internalType": "contract ERC20",
          "name": "",
          "type": "address"
        }
      ],
      "stateMutability": "view",
      "type": "function"
    },
    {
      "inputs": [
        {
          "internalType": "address",
          "name": "newOwner",
          "type": "address"
        }
      ],
      "name": "transferOwnership",
      "outputs": [],
      "stateMutability": "nonpayable",
      "type": "function"
    },
    {
      "inputs": [
        {
          "internalType": "address",
          "name": "account",
          "type": "address"
        },
        {
          "internalType": "uint256",
          "name": "id",
          "type": "uint256"
        },
        {
          "internalType": "uint256",
          "name": "amount",
          "type": "uint256"
        },
        {
          "internalType": "bytes",
          "name": "data",
          "type": "bytes"
        }
      ],
      "name": "mint",
      "outputs": [],
      "stateMutability": "nonpayable",
      "type": "function"
    },
    {
      "inputs": [
        {
          "internalType": "uint256",
          "name": "typeId",
          "type": "uint256"
        }
      ],
      "name": "uri",
      "outputs": [
        {
          "internalType": "string",
          "name": "",
          "type": "string"
        }
      ],
      "stateMutability": "view",
      "type": "function"
    },
    {
      "inputs": [],
      "name": "mintTicket",
      "outputs": [],
      "stateMutability": "nonpayable",
      "type": "function"
    },
    {
      "inputs": [
        {
          "internalType": "uint256",
          "name": "typeId",
          "type": "uint256"
        },
        {
          "internalType": "uint256",
          "name": "amount",
          "type": "uint256"
        },
        {
          "internalType": "address",
          "name": "burnTokenAddress",
          "type": "address"
        }
      ],
      "name": "burnTicketForAddress",
      "outputs": [],
      "stateMutability": "nonpayable",
      "type": "function"
    },
    {
      "inputs": [],
      "name": "flipSaleActive",
      "outputs": [],
      "stateMutability": "nonpayable",
      "type": "function"
    },
    {
      "inputs": [],
      "name": "flipReveal",
      "outputs": [],
      "stateMutability": "nonpayable",
      "type": "function"
    },
    {
      "inputs": [
        {
          "internalType": "uint256",
          "name": "_mintPrice",
          "type": "uint256"
        }
      ],
      "name": "setMintPrice",
      "outputs": [],
      "stateMutability": "nonpayable",
      "type": "function"
    },
    {
      "inputs": [
        {
          "internalType": "string",
          "name": "_unixTimestamp",
          "type": "string"
        }
      ],
      "name": "setStartTime",
      "outputs": [],
      "stateMutability": "nonpayable",
      "type": "function"
    },
    {
      "inputs": [
        {
          "internalType": "string",
          "name": "_notRevealedURI",
          "type": "string"
        }
      ],
      "name": "setNotRevealedURI",
      "outputs": [],
      "stateMutability": "nonpayable",
      "type": "function"
    },
    {
      "inputs": [
        {
          "internalType": "string",
          "name": "_newBaseURI",
          "type": "string"
        }
      ],
      "name": "setBaseURI",
      "outputs": [],
      "stateMutability": "nonpayable",
      "type": "function"
    },
    {
      "inputs": [
        {
          "internalType": "string",
          "name": "_newBaseExtension",
          "type": "string"
        }
      ],
      "name": "setBaseExtension",
      "outputs": [],
      "stateMutability": "nonpayable",
      "type": "function"
    },
    {
      "inputs": [
        {
          "internalType": "uint256",
          "name": "_maxBalance",
          "type": "uint256"
        }
      ],
      "name": "setMaxBalance",
      "outputs": [],
      "stateMutability": "nonpayable",
      "type": "function"
    },
    {
      "inputs": [
        {
          "internalType": "uint256",
          "name": "_maxMint",
          "type": "uint256"
        }
      ],
      "name": "setMaxMint",
      "outputs": [],
      "stateMutability": "nonpayable",
      "type": "function"
    },
    {
      "inputs": [
        {
          "internalType": "address",
          "name": "to",
          "type": "address"
        }
      ],
      "name": "withdraw",
      "outputs": [],
      "stateMutability": "nonpayable",
      "type": "function"
    }
  ],
  "bytecode": "0x60806040526000600360156101000a81548160ff0219169083151502179055506000600360166101000a81548160ff02191690831515021790555060016005556001600655629896806008556103e86009556040518060400160405280600581526020017f2e6a736f6e000000000000000000000000000000000000000000000000000000815250600b90805190602001906200009e9291906200035a565b50348015620000ac57600080fd5b5060405162004a3438038062004a348339818101604052810190620000d291906200060c565b60405180602001604052806000815250620000f3816200018960201b60201c565b506200011462000108620001a560201b60201c565b620001ad60201b60201c565b6000600360146101000a81548160ff02191690831515021790555081600760006101000a81548173ffffffffffffffffffffffffffffffffffffffff021916908373ffffffffffffffffffffffffffffffffffffffff16021790555062000181816200027360201b60201c565b505062000759565b8060029080519060200190620001a19291906200035a565b5050565b600033905090565b6000600360009054906101000a900473ffffffffffffffffffffffffffffffffffffffff16905081600360006101000a81548173ffffffffffffffffffffffffffffffffffffffff021916908373ffffffffffffffffffffffffffffffffffffffff1602179055508173ffffffffffffffffffffffffffffffffffffffff168173ffffffffffffffffffffffffffffffffffffffff167f8be0079c531659141344cd1fd0a4f28419497f9722a3daafe3b4186f6b6457e060405160405180910390a35050565b620002836200029f60201b60201c565b80600a90805190602001906200029b9291906200035a565b5050565b620002af620001a560201b60201c565b73ffffffffffffffffffffffffffffffffffffffff16620002d56200033060201b60201c565b73ffffffffffffffffffffffffffffffffffffffff16146200032e576040517f08c379a00000000000000000000000000000000000000000000000000000000081526004016200032590620006d3565b60405180910390fd5b565b6000600360009054906101000a900473ffffffffffffffffffffffffffffffffffffffff16905090565b828054620003689062000724565b90600052602060002090601f0160209004810192826200038c5760008555620003d8565b82601f10620003a757805160ff1916838001178555620003d8565b82800160010185558215620003d8579182015b82811115620003d7578251825591602001919060010190620003ba565b5b509050620003e79190620003eb565b5090565b5b8082111562000406576000816000905550600101620003ec565b5090565b6000604051905090565b600080fd5b600080fd5b600073ffffffffffffffffffffffffffffffffffffffff82169050919050565b60006200044b826200041e565b9050919050565b6200045d816200043e565b81146200046957600080fd5b50565b6000815190506200047d8162000452565b92915050565b600080fd5b600080fd5b6000601f19601f8301169050919050565b7f4e487b7100000000000000000000000000000000000000000000000000000000600052604160045260246000fd5b620004d8826200048d565b810181811067ffffffffffffffff82111715620004fa57620004f96200049e565b5b80604052505050565b60006200050f6200040a565b90506200051d8282620004cd565b919050565b600067ffffffffffffffff82111562000540576200053f6200049e565b5b6200054b826200048d565b9050602081019050919050565b60005b83811015620005785780820151818401526020810190506200055b565b8381111562000588576000848401525b50505050565b6000620005a56200059f8462000522565b62000503565b905082815260208101848484011115620005c457620005c362000488565b5b620005d184828562000558565b509392505050565b600082601f830112620005f157620005f062000483565b5b8151620006038482602086016200058e565b91505092915050565b6000806040838503121562000626576200062562000414565b5b600062000636858286016200046c565b925050602083015167ffffffffffffffff8111156200065a576200065962000419565b5b6200066885828601620005d9565b9150509250929050565b600082825260208201905092915050565b7f4f776e61626c653a2063616c6c6572206973206e6f7420746865206f776e6572600082015250565b6000620006bb60208362000672565b9150620006c88262000683565b602082019050919050565b60006020820190508181036000830152620006ee81620006ac565b9050919050565b7f4e487b7100000000000000000000000000000000000000000000000000000000600052602260045260246000fd5b600060028204905060018216806200073d57607f821691505b602082108103620007535762000752620006f5565b5b50919050565b6142cb80620007696000396000f3fe608060405234801561001057600080fd5b50600436106102265760003560e01c80637080d6fc11610130578063c6682862116100b8578063f2c4ce1e1161007c578063f2c4ce1e146105dd578063f2fde38b146105f9578063f4a0a52814610615578063f5298aca14610631578063fc0c546a1461064d57610226565b8063c66828621461054d578063da3ef23f1461056b578063de8b51e114610587578063e985e9c514610591578063f242432a146105c157610226565b80637501f741116100ff5780637501f741146104bb57806379d81fd1146104d95780638da5cb5b146104f75780639d51d9b714610515578063a22cb4651461053157610226565b80637080d6fc14610459578063715018a614610477578063731133e91461048157806373ad468a1461049d57610226565b806351cff8d9116101b35780635c975abb116101825780635c975abb146103c75780636488622d146103e55780636817c76c146104015780636b20c4541461041f5780636ebeac851461043b57610226565b806351cff8d914610369578063547520fe1461038557806355f804b3146103a1578063573c80fa146103bd57610226565b80630e89341c116101fa5780630e89341c146102c55780632eb2c2d6146102f557806332cb6b0c146103115780633b84d9c61461032f5780634e1273f41461033957610226565b8062fdd58e1461022b57806301ffc9a71461025b578063081c8c441461028b5780630ca35882146102a9575b600080fd5b6102456004803603810190610240919061285c565b61066b565b60405161025291906128ab565b60405180910390f35b6102756004803603810190610270919061291e565b610733565b6040516102829190612966565b60405180910390f35b610293610815565b6040516102a09190612a1a565b60405180910390f35b6102c360048036038101906102be9190612b71565b6108a3565b005b6102df60048036038101906102da9190612bba565b6108c5565b6040516102ec9190612a1a565b60405180910390f35b61030f600480360381019061030a9190612d50565b6108ef565b005b610319610990565b60405161032691906128ab565b60405180910390f35b610337610995565b005b610353600480360381019061034e9190612ee2565b6109c9565b6040516103609190613018565b60405180910390f35b610383600480360381019061037e919061303a565b610ae2565b005b61039f600480360381019061039a9190612bba565b610b3a565b005b6103bb60048036038101906103b69190612b71565b610b4c565b005b6103c5610b6e565b005b6103cf610de9565b6040516103dc9190612966565b60405180910390f35b6103ff60048036038101906103fa9190613067565b610e00565b005b610409610e10565b60405161041691906128ab565b60405180910390f35b610439600480360381019061043491906130ba565b610e16565b005b610443610eb3565b6040516104509190612966565b60405180910390f35b610461610ec6565b60405161046e9190612966565b60405180910390f35b61047f610ed9565b005b61049b60048036038101906104969190613145565b610eed565b005b6104a5610f07565b6040516104b291906128ab565b60405180910390f35b6104c3610f0d565b6040516104d091906128ab565b60405180910390f35b6104e1610f13565b6040516104ee91906128ab565b60405180910390f35b6104ff610f19565b60405161050c91906131d7565b60405180910390f35b61052f600480360381019061052a9190612bba565b610f43565b005b61054b6004803603810190610546919061321e565b610f55565b005b610555610f6b565b6040516105629190612a1a565b60405180910390f35b61058560048036038101906105809190612b71565b610ff9565b005b61058f61101b565b005b6105ab60048036038101906105a6919061325e565b61104f565b6040516105b89190612966565b60405180910390f35b6105db60048036038101906105d6919061329e565b6110e3565b005b6105f760048036038101906105f29190612b71565b611184565b005b610613600480360381019061060e919061303a565b6111a6565b005b61062f600480360381019061062a9190612bba565b611229565b005b61064b60048036038101906106469190613335565b61123b565b005b6106556112d8565b60405161066291906133e7565b60405180910390f35b60008073ffffffffffffffffffffffffffffffffffffffff168373ffffffffffffffffffffffffffffffffffffffff16036106db576040517f08c379a00000000000000000000000000000000000000000000000000000000081526004016106d290613474565b60405180910390fd5b60008083815260200190815260200160002060008473ffffffffffffffffffffffffffffffffffffffff1673ffffffffffffffffffffffffffffffffffffffff16815260200190815260200160002054905092915050565b60007fd9b67a26000000000000000000000000000000000000000000000000000000007bffffffffffffffffffffffffffffffffffffffffffffffffffffffff1916827bffffffffffffffffffffffffffffffffffffffffffffffffffffffff191614806107fe57507f0e89341c000000000000000000000000000000000000000000000000000000007bffffffffffffffffffffffffffffffffffffffffffffffffffffffff1916827bffffffffffffffffffffffffffffffffffffffffffffffffffffffff1916145b8061080e575061080d826112fe565b5b9050919050565b60048054610822906134c3565b80601f016020809104026020016040519081016040528092919081815260200182805461084e906134c3565b801561089b5780601f106108705761010080835404028352916020019161089b565b820191906000526020600020905b81548152906001019060200180831161087e57829003601f168201915b505050505081565b6108ab611368565b80600c90805190602001906108c1929190612711565b5050565b6060600a6040516020016108d99190613593565b6040516020818303038152906040529050919050565b6108f76113e6565b73ffffffffffffffffffffffffffffffffffffffff168573ffffffffffffffffffffffffffffffffffffffff16148061093d575061093c856109376113e6565b61104f565b5b61097c576040517f08c379a00000000000000000000000000000000000000000000000000000000081526004016109739061361c565b60405180910390fd5b61098985858585856113ee565b5050505050565b600a81565b61099d611368565b600360169054906101000a900460ff1615600360166101000a81548160ff021916908315150217905550565b60608151835114610a0f576040517f08c379a0000000000000000000000000000000000000000000000000000000008152600401610a06906136ae565b60405180910390fd5b6000835167ffffffffffffffff811115610a2c57610a2b612a46565b5b604051908082528060200260200182016040528015610a5a5781602001602082028036833780820191505090505b50905060005b8451811015610ad757610aa7858281518110610a7f57610a7e6136ce565b5b6020026020010151858381518110610a9a57610a996136ce565b5b602002602001015161066b565b828281518110610aba57610ab96136ce565b5b60200260200101818152505080610ad09061372c565b9050610a60565b508091505092915050565b610aea611368565b60004790508173ffffffffffffffffffffffffffffffffffffffff166108fc829081150290604051600060405180830381858888f19350505050158015610b35573d6000803e3d6000fd5b505050565b610b42611368565b8060068190555050565b610b54611368565b80600a9080519060200190610b6a929190612711565b5050565b600854600760009054906101000a900473ffffffffffffffffffffffffffffffffffffffff1673ffffffffffffffffffffffffffffffffffffffff166370a08231336040518263ffffffff1660e01b8152600401610bcc91906131d7565b602060405180830381865afa158015610be9573d6000803e3d6000fd5b505050506040513d601f19601f82011682018060405250810190610c0d9190613789565b1015610c4e576040517f08c379a0000000000000000000000000000000000000000000000000000000008152600401610c4590613802565b60405180910390fd5b600060095411610c93576040517f08c379a0000000000000000000000000000000000000000000000000000000008152600401610c8a9061386e565b60405180910390fd5b600554610ca133600061066b565b1115610ce2576040517f08c379a0000000000000000000000000000000000000000000000000000000008152600401610cd9906138da565b60405180910390fd5b600760009054906101000a900473ffffffffffffffffffffffffffffffffffffffff1673ffffffffffffffffffffffffffffffffffffffff166323b872dd33306008546040518463ffffffff1660e01b8152600401610d43939291906138fa565b6020604051808303816000875af1158015610d62573d6000803e3d6000fd5b505050506040513d601f19601f82011682018060405250810190610d869190613946565b50610dcb3360006006546040518060400160405280600481526020017f3078303000000000000000000000000000000000000000000000000000000000815250610eed565b610de1600160095461170f90919063ffffffff16565b600981905550565b6000600360149054906101000a900460ff16905090565b610e0b818484611725565b505050565b60085481565b610e1e6113e6565b73ffffffffffffffffffffffffffffffffffffffff168373ffffffffffffffffffffffffffffffffffffffff161480610e645750610e6383610e5e6113e6565b61104f565b5b610ea3576040517f08c379a0000000000000000000000000000000000000000000000000000000008152600401610e9a9061361c565b60405180910390fd5b610eae83838361196b565b505050565b600360169054906101000a900460ff1681565b600360159054906101000a900460ff1681565b610ee1611368565b610eeb6000611c39565b565b610ef5611368565b610f0184848484611cff565b50505050565b60055481565b60065481565b60095481565b6000600360009054906101000a900473ffffffffffffffffffffffffffffffffffffffff16905090565b610f4b611368565b8060058190555050565b610f67610f606113e6565b8383611eaf565b5050565b600b8054610f78906134c3565b80601f0160208091040260200160405190810160405280929190818152602001828054610fa4906134c3565b8015610ff15780601f10610fc657610100808354040283529160200191610ff1565b820191906000526020600020905b815481529060010190602001808311610fd457829003601f168201915b505050505081565b611001611368565b80600b9080519060200190611017929190612711565b5050565b611023611368565b600360159054906101000a900460ff1615600360156101000a81548160ff021916908315150217905550565b6000600160008473ffffffffffffffffffffffffffffffffffffffff1673ffffffffffffffffffffffffffffffffffffffff16815260200190815260200160002060008373ffffffffffffffffffffffffffffffffffffffff1673ffffffffffffffffffffffffffffffffffffffff16815260200190815260200160002060009054906101000a900460ff16905092915050565b6110eb6113e6565b73ffffffffffffffffffffffffffffffffffffffff168573ffffffffffffffffffffffffffffffffffffffff16148061113157506111308561112b6113e6565b61104f565b5b611170576040517f08c379a00000000000000000000000000000000000000000000000000000000081526004016111679061361c565b60405180910390fd5b61117d858585858561201b565b5050505050565b61118c611368565b80600490805190602001906111a2929190612711565b5050565b6111ae611368565b600073ffffffffffffffffffffffffffffffffffffffff168173ffffffffffffffffffffffffffffffffffffffff160361121d576040517f08c379a0000000000000000000000000000000000000000000000000000000008152600401611214906139e5565b60405180910390fd5b61122681611c39565b50565b611231611368565b8060088190555050565b6112436113e6565b73ffffffffffffffffffffffffffffffffffffffff168373ffffffffffffffffffffffffffffffffffffffff1614806112895750611288836112836113e6565b61104f565b5b6112c8576040517f08c379a00000000000000000000000000000000000000000000000000000000081526004016112bf9061361c565b60405180910390fd5b6112d3838383611725565b505050565b600760009054906101000a900473ffffffffffffffffffffffffffffffffffffffff1681565b60007f01ffc9a7000000000000000000000000000000000000000000000000000000007bffffffffffffffffffffffffffffffffffffffffffffffffffffffff1916827bffffffffffffffffffffffffffffffffffffffffffffffffffffffff1916149050919050565b6113706113e6565b73ffffffffffffffffffffffffffffffffffffffff1661138e610f19565b73ffffffffffffffffffffffffffffffffffffffff16146113e4576040517f08c379a00000000000000000000000000000000000000000000000000000000081526004016113db90613a51565b60405180910390fd5b565b600033905090565b8151835114611432576040517f08c379a000000000000000000000000000000000000000000000000000000000815260040161142990613ae3565b60405180910390fd5b600073ffffffffffffffffffffffffffffffffffffffff168473ffffffffffffffffffffffffffffffffffffffff16036114a1576040517f08c379a000000000000000000000000000000000000000000000000000000000815260040161149890613b75565b60405180910390fd5b60006114ab6113e6565b90506114bb8187878787876122b6565b60005b845181101561166c5760008582815181106114dc576114db6136ce565b5b6020026020010151905060008583815181106114fb576114fa6136ce565b5b60200260200101519050600080600084815260200190815260200160002060008b73ffffffffffffffffffffffffffffffffffffffff1673ffffffffffffffffffffffffffffffffffffffff1681526020019081526020016000205490508181101561159c576040517f08c379a000000000000000000000000000000000000000000000000000000000815260040161159390613c07565b60405180910390fd5b81810360008085815260200190815260200160002060008c73ffffffffffffffffffffffffffffffffffffffff1673ffffffffffffffffffffffffffffffffffffffff168152602001908152602001600020819055508160008085815260200190815260200160002060008b73ffffffffffffffffffffffffffffffffffffffff1673ffffffffffffffffffffffffffffffffffffffff16815260200190815260200160002060008282546116519190613c27565b92505081905550505050806116659061372c565b90506114be565b508473ffffffffffffffffffffffffffffffffffffffff168673ffffffffffffffffffffffffffffffffffffffff168273ffffffffffffffffffffffffffffffffffffffff167f4a39dc06d4c0dbc64b70af90fd698a233a518aa5d07e595d983b8c0526c8f7fb87876040516116e3929190613c7d565b60405180910390a46116f98187878787876122be565b6117078187878787876122c6565b505050505050565b6000818361171d9190613cb4565b905092915050565b600073ffffffffffffffffffffffffffffffffffffffff168373ffffffffffffffffffffffffffffffffffffffff1603611794576040517f08c379a000000000000000000000000000000000000000000000000000000000815260040161178b90613d5a565b60405180910390fd5b600061179e6113e6565b905060006117ab8461249d565b905060006117b88461249d565b90506117d8838760008585604051806020016040528060008152506122b6565b600080600087815260200190815260200160002060008873ffffffffffffffffffffffffffffffffffffffff1673ffffffffffffffffffffffffffffffffffffffff1681526020019081526020016000205490508481101561186f576040517f08c379a000000000000000000000000000000000000000000000000000000000815260040161186690613dec565b60405180910390fd5b84810360008088815260200190815260200160002060008973ffffffffffffffffffffffffffffffffffffffff1673ffffffffffffffffffffffffffffffffffffffff16815260200190815260200160002081905550600073ffffffffffffffffffffffffffffffffffffffff168773ffffffffffffffffffffffffffffffffffffffff168573ffffffffffffffffffffffffffffffffffffffff167fc3d58168c5ae7397731d063d5bbf3d657854427343f4c083240f7aacaa2d0f62898960405161193c929190613e0c565b60405180910390a4611962848860008686604051806020016040528060008152506122be565b50505050505050565b600073ffffffffffffffffffffffffffffffffffffffff168373ffffffffffffffffffffffffffffffffffffffff16036119da576040517f08c379a00000000000000000000000000000000000000000000000000000000081526004016119d190613d5a565b60405180910390fd5b8051825114611a1e576040517f08c379a0000000000000000000000000000000000000000000000000000000008152600401611a1590613ae3565b60405180910390fd5b6000611a286113e6565b9050611a48818560008686604051806020016040528060008152506122b6565b60005b8351811015611b95576000848281518110611a6957611a686136ce565b5b602002602001015190506000848381518110611a8857611a876136ce565b5b60200260200101519050600080600084815260200190815260200160002060008973ffffffffffffffffffffffffffffffffffffffff1673ffffffffffffffffffffffffffffffffffffffff16815260200190815260200160002054905081811015611b29576040517f08c379a0000000000000000000000000000000000000000000000000000000008152600401611b2090613dec565b60405180910390fd5b81810360008085815260200190815260200160002060008a73ffffffffffffffffffffffffffffffffffffffff1673ffffffffffffffffffffffffffffffffffffffff168152602001908152602001600020819055505050508080611b8d9061372c565b915050611a4b565b50600073ffffffffffffffffffffffffffffffffffffffff168473ffffffffffffffffffffffffffffffffffffffff168273ffffffffffffffffffffffffffffffffffffffff167f4a39dc06d4c0dbc64b70af90fd698a233a518aa5d07e595d983b8c0526c8f7fb8686604051611c0d929190613c7d565b60405180910390a4611c33818560008686604051806020016040528060008152506122be565b50505050565b6000600360009054906101000a900473ffffffffffffffffffffffffffffffffffffffff16905081600360006101000a81548173ffffffffffffffffffffffffffffffffffffffff021916908373ffffffffffffffffffffffffffffffffffffffff1602179055508173ffffffffffffffffffffffffffffffffffffffff168173ffffffffffffffffffffffffffffffffffffffff167f8be0079c531659141344cd1fd0a4f28419497f9722a3daafe3b4186f6b6457e060405160405180910390a35050565b600073ffffffffffffffffffffffffffffffffffffffff168473ffffffffffffffffffffffffffffffffffffffff1603611d6e576040517f08c379a0000000000000000000000000000000000000000000000000000000008152600401611d6590613ea7565b60405180910390fd5b6000611d786113e6565b90506000611d858561249d565b90506000611d928561249d565b9050611da3836000898585896122b6565b8460008088815260200190815260200160002060008973ffffffffffffffffffffffffffffffffffffffff1673ffffffffffffffffffffffffffffffffffffffff1681526020019081526020016000206000828254611e029190613c27565b925050819055508673ffffffffffffffffffffffffffffffffffffffff16600073ffffffffffffffffffffffffffffffffffffffff168473ffffffffffffffffffffffffffffffffffffffff167fc3d58168c5ae7397731d063d5bbf3d657854427343f4c083240f7aacaa2d0f628989604051611e80929190613e0c565b60405180910390a4611e97836000898585896122be565b611ea683600089898989612517565b50505050505050565b8173ffffffffffffffffffffffffffffffffffffffff168373ffffffffffffffffffffffffffffffffffffffff1603611f1d576040517f08c379a0000000000000000000000000000000000000000000000000000000008152600401611f1490613f39565b60405180910390fd5b80600160008573ffffffffffffffffffffffffffffffffffffffff1673ffffffffffffffffffffffffffffffffffffffff16815260200190815260200160002060008473ffffffffffffffffffffffffffffffffffffffff1673ffffffffffffffffffffffffffffffffffffffff16815260200190815260200160002060006101000a81548160ff0219169083151502179055508173ffffffffffffffffffffffffffffffffffffffff168373ffffffffffffffffffffffffffffffffffffffff167f17307eab39ab6107e8899845ad3d59bd9653f200f220920489ca2b5937696c318360405161200e9190612966565b60405180910390a3505050565b600073ffffffffffffffffffffffffffffffffffffffff168473ffffffffffffffffffffffffffffffffffffffff160361208a576040517f08c379a000000000000000000000000000000000000000000000000000000000815260040161208190613b75565b60405180910390fd5b60006120946113e6565b905060006120a18561249d565b905060006120ae8561249d565b90506120be8389898585896122b6565b600080600088815260200190815260200160002060008a73ffffffffffffffffffffffffffffffffffffffff1673ffffffffffffffffffffffffffffffffffffffff16815260200190815260200160002054905085811015612155576040517f08c379a000000000000000000000000000000000000000000000000000000000815260040161214c90613c07565b60405180910390fd5b85810360008089815260200190815260200160002060008b73ffffffffffffffffffffffffffffffffffffffff1673ffffffffffffffffffffffffffffffffffffffff168152602001908152602001600020819055508560008089815260200190815260200160002060008a73ffffffffffffffffffffffffffffffffffffffff1673ffffffffffffffffffffffffffffffffffffffff168152602001908152602001600020600082825461220a9190613c27565b925050819055508773ffffffffffffffffffffffffffffffffffffffff168973ffffffffffffffffffffffffffffffffffffffff168573ffffffffffffffffffffffffffffffffffffffff167fc3d58168c5ae7397731d063d5bbf3d657854427343f4c083240f7aacaa2d0f628a8a604051612287929190613e0c565b60405180910390a461229d848a8a86868a6122be565b6122ab848a8a8a8a8a612517565b505050505050505050565b505050505050565b505050505050565b6122e58473ffffffffffffffffffffffffffffffffffffffff166126ee565b15612495578373ffffffffffffffffffffffffffffffffffffffff1663bc197c8187878686866040518663ffffffff1660e01b815260040161232b959493929190613fae565b6020604051808303816000875af192505050801561236757506040513d601f19601f82011682018060405250810190612364919061402b565b60015b61240c57612373614065565b806308c379a0036123cf5750612387614087565b8061239257506123d1565b806040517f08c379a00000000000000000000000000000000000000000000000000000000081526004016123c69190612a1a565b60405180910390fd5b505b6040517f08c379a000000000000000000000000000000000000000000000000000000000815260040161240390614189565b60405180910390fd5b63bc197c8160e01b7bffffffffffffffffffffffffffffffffffffffffffffffffffffffff1916817bffffffffffffffffffffffffffffffffffffffffffffffffffffffff191614612493576040517f08c379a000000000000000000000000000000000000000000000000000000000815260040161248a9061421b565b60405180910390fd5b505b505050505050565b60606000600167ffffffffffffffff8111156124bc576124bb612a46565b5b6040519080825280602002602001820160405280156124ea5781602001602082028036833780820191505090505b5090508281600081518110612502576125016136ce565b5b60200260200101818152505080915050919050565b6125368473ffffffffffffffffffffffffffffffffffffffff166126ee565b156126e6578373ffffffffffffffffffffffffffffffffffffffff1663f23a6e6187878686866040518663ffffffff1660e01b815260040161257c95949392919061423b565b6020604051808303816000875af19250505080156125b857506040513d601f19601f820116820180604052508101906125b5919061402b565b60015b61265d576125c4614065565b806308c379a00361262057506125d8614087565b806125e35750612622565b806040517f08c379a00000000000000000000000000000000000000000000000000000000081526004016126179190612a1a565b60405180910390fd5b505b6040517f08c379a000000000000000000000000000000000000000000000000000000000815260040161265490614189565b60405180910390fd5b63f23a6e6160e01b7bffffffffffffffffffffffffffffffffffffffffffffffffffffffff1916817bffffffffffffffffffffffffffffffffffffffffffffffffffffffff1916146126e4576040517f08c379a00000000000000000000000000000000000000000000000000000000081526004016126db9061421b565b60405180910390fd5b505b505050505050565b6000808273ffffffffffffffffffffffffffffffffffffffff163b119050919050565b82805461271d906134c3565b90600052602060002090601f01602090048101928261273f5760008555612786565b82601f1061275857805160ff1916838001178555612786565b82800160010185558215612786579182015b8281111561278557825182559160200191906001019061276a565b5b5090506127939190612797565b5090565b5b808211156127b0576000816000905550600101612798565b5090565b6000604051905090565b600080fd5b600080fd5b600073ffffffffffffffffffffffffffffffffffffffff82169050919050565b60006127f3826127c8565b9050919050565b612803816127e8565b811461280e57600080fd5b50565b600081359050612820816127fa565b92915050565b6000819050919050565b61283981612826565b811461284457600080fd5b50565b60008135905061285681612830565b92915050565b60008060408385031215612873576128726127be565b5b600061288185828601612811565b925050602061289285828601612847565b9150509250929050565b6128a581612826565b82525050565b60006020820190506128c0600083018461289c565b92915050565b60007fffffffff0000000000000000000000000000000000000000000000000000000082169050919050565b6128fb816128c6565b811461290657600080fd5b50565b600081359050612918816128f2565b92915050565b600060208284031215612934576129336127be565b5b600061294284828501612909565b91505092915050565b60008115159050919050565b6129608161294b565b82525050565b600060208201905061297b6000830184612957565b92915050565b600081519050919050565b600082825260208201905092915050565b60005b838110156129bb5780820151818401526020810190506129a0565b838111156129ca576000848401525b50505050565b6000601f19601f8301169050919050565b60006129ec82612981565b6129f6818561298c565b9350612a0681856020860161299d565b612a0f816129d0565b840191505092915050565b60006020820190508181036000830152612a3481846129e1565b905092915050565b600080fd5b600080fd5b7f4e487b7100000000000000000000000000000000000000000000000000000000600052604160045260246000fd5b612a7e826129d0565b810181811067ffffffffffffffff82111715612a9d57612a9c612a46565b5b80604052505050565b6000612ab06127b4565b9050612abc8282612a75565b919050565b600067ffffffffffffffff821115612adc57612adb612a46565b5b612ae5826129d0565b9050602081019050919050565b82818337600083830152505050565b6000612b14612b0f84612ac1565b612aa6565b905082815260208101848484011115612b3057612b2f612a41565b5b612b3b848285612af2565b509392505050565b600082601f830112612b5857612b57612a3c565b5b8135612b68848260208601612b01565b91505092915050565b600060208284031215612b8757612b866127be565b5b600082013567ffffffffffffffff811115612ba557612ba46127c3565b5b612bb184828501612b43565b91505092915050565b600060208284031215612bd057612bcf6127be565b5b6000612bde84828501612847565b91505092915050565b600067ffffffffffffffff821115612c0257612c01612a46565b5b602082029050602081019050919050565b600080fd5b6000612c2b612c2684612be7565b612aa6565b90508083825260208201905060208402830185811115612c4e57612c4d612c13565b5b835b81811015612c775780612c638882612847565b845260208401935050602081019050612c50565b5050509392505050565b600082601f830112612c9657612c95612a3c565b5b8135612ca6848260208601612c18565b91505092915050565b600067ffffffffffffffff821115612cca57612cc9612a46565b5b612cd3826129d0565b9050602081019050919050565b6000612cf3612cee84612caf565b612aa6565b905082815260208101848484011115612d0f57612d0e612a41565b5b612d1a848285612af2565b509392505050565b600082601f830112612d3757612d36612a3c565b5b8135612d47848260208601612ce0565b91505092915050565b600080600080600060a08688031215612d6c57612d6b6127be565b5b6000612d7a88828901612811565b9550506020612d8b88828901612811565b945050604086013567ffffffffffffffff811115612dac57612dab6127c3565b5b612db888828901612c81565b935050606086013567ffffffffffffffff811115612dd957612dd86127c3565b5b612de588828901612c81565b925050608086013567ffffffffffffffff811115612e0657612e056127c3565b5b612e1288828901612d22565b9150509295509295909350565b600067ffffffffffffffff821115612e3a57612e39612a46565b5b602082029050602081019050919050565b6000612e5e612e5984612e1f565b612aa6565b90508083825260208201905060208402830185811115612e8157612e80612c13565b5b835b81811015612eaa5780612e968882612811565b845260208401935050602081019050612e83565b5050509392505050565b600082601f830112612ec957612ec8612a3c565b5b8135612ed9848260208601612e4b565b91505092915050565b60008060408385031215612ef957612ef86127be565b5b600083013567ffffffffffffffff811115612f1757612f166127c3565b5b612f2385828601612eb4565b925050602083013567ffffffffffffffff811115612f4457612f436127c3565b5b612f5085828601612c81565b9150509250929050565b600081519050919050565b600082825260208201905092915050565b6000819050602082019050919050565b612f8f81612826565b82525050565b6000612fa18383612f86565b60208301905092915050565b6000602082019050919050565b6000612fc582612f5a565b612fcf8185612f65565b9350612fda83612f76565b8060005b8381101561300b578151612ff28882612f95565b9750612ffd83612fad565b925050600181019050612fde565b5085935050505092915050565b600060208201905081810360008301526130328184612fba565b905092915050565b6000602082840312156130505761304f6127be565b5b600061305e84828501612811565b91505092915050565b6000806000606084860312156130805761307f6127be565b5b600061308e86828701612847565b935050602061309f86828701612847565b92505060406130b086828701612811565b9150509250925092565b6000806000606084860312156130d3576130d26127be565b5b60006130e186828701612811565b935050602084013567ffffffffffffffff811115613102576131016127c3565b5b61310e86828701612c81565b925050604084013567ffffffffffffffff81111561312f5761312e6127c3565b5b61313b86828701612c81565b9150509250925092565b6000806000806080858703121561315f5761315e6127be565b5b600061316d87828801612811565b945050602061317e87828801612847565b935050604061318f87828801612847565b925050606085013567ffffffffffffffff8111156131b0576131af6127c3565b5b6131bc87828801612d22565b91505092959194509250565b6131d1816127e8565b82525050565b60006020820190506131ec60008301846131c8565b92915050565b6131fb8161294b565b811461320657600080fd5b50565b600081359050613218816131f2565b92915050565b60008060408385031215613235576132346127be565b5b600061324385828601612811565b925050602061325485828601613209565b9150509250929050565b60008060408385031215613275576132746127be565b5b600061328385828601612811565b925050602061329485828601612811565b9150509250929050565b600080600080600060a086880312156132ba576132b96127be565b5b60006132c888828901612811565b95505060206132d988828901612811565b94505060406132ea88828901612847565b93505060606132fb88828901612847565b925050608086013567ffffffffffffffff81111561331c5761331b6127c3565b5b61332888828901612d22565b9150509295509295909350565b60008060006060848603121561334e5761334d6127be565b5b600061335c86828701612811565b935050602061336d86828701612847565b925050604061337e86828701612847565b9150509250925092565b6000819050919050565b60006133ad6133a86133a3846127c8565b613388565b6127c8565b9050919050565b60006133bf82613392565b9050919050565b60006133d1826133b4565b9050919050565b6133e1816133c6565b82525050565b60006020820190506133fc60008301846133d8565b92915050565b7f455243313135353a2061646472657373207a65726f206973206e6f742061207660008201527f616c6964206f776e657200000000000000000000000000000000000000000000602082015250565b600061345e602a8361298c565b915061346982613402565b604082019050919050565b6000602082019050818103600083015261348d81613451565b9050919050565b7f4e487b7100000000000000000000000000000000000000000000000000000000600052602260045260246000fd5b600060028204905060018216806134db57607f821691505b6020821081036134ee576134ed613494565b5b50919050565b600081905092915050565b60008190508160005260206000209050919050565b60008154613521816134c3565b61352b81866134f4565b9450600182166000811461354657600181146135575761358a565b60ff1983168652818601935061358a565b613560856134ff565b60005b8381101561358257815481890152600182019150602081019050613563565b838801955050505b50505092915050565b600061359f8284613514565b915081905092915050565b7f455243313135353a2063616c6c6572206973206e6f7420746f6b656e206f776e60008201527f6572206e6f7220617070726f7665640000000000000000000000000000000000602082015250565b6000613606602f8361298c565b9150613611826135aa565b604082019050919050565b60006020820190508181036000830152613635816135f9565b9050919050565b7f455243313135353a206163636f756e747320616e6420696473206c656e67746860008201527f206d69736d617463680000000000000000000000000000000000000000000000602082015250565b600061369860298361298c565b91506136a38261363c565b604082019050919050565b600060208201905081810360008301526136c78161368b565b9050919050565b7f4e487b7100000000000000000000000000000000000000000000000000000000600052603260045260246000fd5b7f4e487b7100000000000000000000000000000000000000000000000000000000600052601160045260246000fd5b600061373782612826565b91507fffffffffffffffffffffffffffffffffffffffffffffffffffffffffffffffff8203613769576137686136fd565b5b600182019050919050565b60008151905061378381612830565b92915050565b60006020828403121561379f5761379e6127be565b5b60006137ad84828501613774565b91505092915050565b7f4e6f7420656e6f75676820746f6b656e00000000000000000000000000000000600082015250565b60006137ec60108361298c565b91506137f7826137b6565b602082019050919050565b6000602082019050818103600083015261381b816137df565b9050919050565b7f616c6c20647261776e0000000000000000000000000000000000000000000000600082015250565b600061385860098361298c565b915061386382613822565b602082019050919050565b600060208201905081810360008301526138878161384b565b9050919050565b7f53616c6520776f756c6420657863656564206d61782062616c616e6365000000600082015250565b60006138c4601d8361298c565b91506138cf8261388e565b602082019050919050565b600060208201905081810360008301526138f3816138b7565b9050919050565b600060608201905061390f60008301866131c8565b61391c60208301856131c8565b613929604083018461289c565b949350505050565b600081519050613940816131f2565b92915050565b60006020828403121561395c5761395b6127be565b5b600061396a84828501613931565b91505092915050565b7f4f776e61626c653a206e6577206f776e657220697320746865207a65726f206160008201527f6464726573730000000000000000000000000000000000000000000000000000602082015250565b60006139cf60268361298c565b91506139da82613973565b604082019050919050565b600060208201905081810360008301526139fe816139c2565b9050919050565b7f4f776e61626c653a2063616c6c6572206973206e6f7420746865206f776e6572600082015250565b6000613a3b60208361298c565b9150613a4682613a05565b602082019050919050565b60006020820190508181036000830152613a6a81613a2e565b9050919050565b7f455243313135353a2069647320616e6420616d6f756e7473206c656e6774682060008201527f6d69736d61746368000000000000000000000000000000000000000000000000602082015250565b6000613acd60288361298c565b9150613ad882613a71565b604082019050919050565b60006020820190508181036000830152613afc81613ac0565b9050919050565b7f455243313135353a207472616e7366657220746f20746865207a65726f20616460008201527f6472657373000000000000000000000000000000000000000000000000000000602082015250565b6000613b5f60258361298c565b9150613b6a82613b03565b604082019050919050565b60006020820190508181036000830152613b8e81613b52565b9050919050565b7f455243313135353a20696e73756666696369656e742062616c616e636520666f60008201527f72207472616e7366657200000000000000000000000000000000000000000000602082015250565b6000613bf1602a8361298c565b9150613bfc82613b95565b604082019050919050565b60006020820190508181036000830152613c2081613be4565b9050919050565b6000613c3282612826565b9150613c3d83612826565b9250827fffffffffffffffffffffffffffffffffffffffffffffffffffffffffffffffff03821115613c7257613c716136fd565b5b828201905092915050565b60006040820190508181036000830152613c978185612fba565b90508181036020830152613cab8184612fba565b90509392505050565b6000613cbf82612826565b9150613cca83612826565b925082821015613cdd57613cdc6136fd565b5b828203905092915050565b7f455243313135353a206275726e2066726f6d20746865207a65726f206164647260008201527f6573730000000000000000000000000000000000000000000000000000000000602082015250565b6000613d4460238361298c565b9150613d4f82613ce8565b604082019050919050565b60006020820190508181036000830152613d7381613d37565b9050919050565b7f455243313135353a206275726e20616d6f756e7420657863656564732062616c60008201527f616e636500000000000000000000000000000000000000000000000000000000602082015250565b6000613dd660248361298c565b9150613de182613d7a565b604082019050919050565b60006020820190508181036000830152613e0581613dc9565b9050919050565b6000604082019050613e21600083018561289c565b613e2e602083018461289c565b9392505050565b7f455243313135353a206d696e7420746f20746865207a65726f2061646472657360008201527f7300000000000000000000000000000000000000000000000000000000000000602082015250565b6000613e9160218361298c565b9150613e9c82613e35565b604082019050919050565b60006020820190508181036000830152613ec081613e84565b9050919050565b7f455243313135353a2073657474696e6720617070726f76616c2073746174757360008201527f20666f722073656c660000000000000000000000000000000000000000000000602082015250565b6000613f2360298361298c565b9150613f2e82613ec7565b604082019050919050565b60006020820190508181036000830152613f5281613f16565b9050919050565b600081519050919050565b600082825260208201905092915050565b6000613f8082613f59565b613f8a8185613f64565b9350613f9a81856020860161299d565b613fa3816129d0565b840191505092915050565b600060a082019050613fc360008301886131c8565b613fd060208301876131c8565b8181036040830152613fe28186612fba565b90508181036060830152613ff68185612fba565b9050818103608083015261400a8184613f75565b90509695505050505050565b600081519050614025816128f2565b92915050565b600060208284031215614041576140406127be565b5b600061404f84828501614016565b91505092915050565b60008160e01c9050919050565b600060033d11156140845760046000803e614081600051614058565b90505b90565b600060443d10614114576140996127b4565b60043d036004823e80513d602482011167ffffffffffffffff821117156140c1575050614114565b808201805167ffffffffffffffff8111156140df5750505050614114565b80602083010160043d0385018111156140fc575050505050614114565b61410b82602001850186612a75565b82955050505050505b90565b7f455243313135353a207472616e7366657220746f206e6f6e204552433131353560008201527f526563656976657220696d706c656d656e746572000000000000000000000000602082015250565b600061417360348361298c565b915061417e82614117565b604082019050919050565b600060208201905081810360008301526141a281614166565b9050919050565b7f455243313135353a204552433131353552656365697665722072656a6563746560008201527f6420746f6b656e73000000000000000000000000000000000000000000000000602082015250565b600061420560288361298c565b9150614210826141a9565b604082019050919050565b60006020820190508181036000830152614234816141f8565b9050919050565b600060a08201905061425060008301886131c8565b61425d60208301876131c8565b61426a604083018661289c565b614277606083018561289c565b81810360808301526142898184613f75565b9050969550505050505056fea2646970667358221220b89ab22af46b471abb04a375a1fe130e1e967c3c203505379ada54c9f6a1a2be64736f6c634300080e0033",
  "immutableReferences": {},
  "source": "// SPDX-License-Identifier: MIT\npragma solidity ^0.8.4;\n\nimport \"@openzeppelin/contracts/token/ERC1155/ERC1155.sol\";\nimport \"@openzeppelin/contracts/token/ERC1155/extensions/ERC1155Burnable.sol\";\nimport \"@openzeppelin/contracts/token/ERC20/ERC20.sol\";\nimport \"@openzeppelin/contracts/access/Ownable.sol\";\nimport \"@openzeppelin/contracts/security/Pausable.sol\";\nimport \"@openzeppelin/contracts/utils/Strings.sol\";\nimport \"@openzeppelin/contracts/utils/math/SafeMath.sol\";\n\ncontract Ticket is ERC1155, ERC1155Burnable, Ownable, Pausable {\n    using Strings for uint256;\n    using SafeMath for uint256;\n    bool public _isSaleActive = false; //\n    bool public _revealed = false; //\n    string public notRevealedUri;\n\n    // Constants\n    uint256 public constant MAX_SUPPLY = 10; //\n    // uint256 public mintPrice = 0.3;\n    uint256 public maxBalance = 1; //1\n    uint256 public maxMint = 1; //1\n    ERC20 public token;\n    uint256 public mintPrice = 10000000;\n    uint256 public _numAvailableTokens = 1000;\n\n    string private baseURI;\n    string public baseExtension = \".json\";\n    string private startTime; \n    // 2022/6/29 09:00 -> 1656464400\n\n    // mapping(uint256 => string) private _tokenURIs;\n\n    constructor(address tokenAddress, string memory initBaseURI) ERC1155(\"\") {\n        token = ERC20(tokenAddress);\n        setBaseURI(initBaseURI);\n        // setNotRevealedURI(initNotRevealedUri);\n        // setStartTime(unixTimestamp);\n    }\n\n\n\n    function mint(address account, uint256 id, uint256 amount, bytes memory data) public onlyOwner {\n        _mint(account, id, amount, data);\n    }\n\n\n    function uri(uint256 typeId) public view override returns (string memory) {\n        return string(abi.encodePacked(baseURI));\n        // return bytes(baseURI).length > 0\n        //         ? string(abi.encodePacked(baseURI, typeId.toString(), baseExtension))\n        //         : baseURI;\n    }\n\n    function mintTicket() public {\n        require(token.balanceOf(msg.sender) >= mintPrice, \"Not enough token\");\n        require(_numAvailableTokens > 0, \"all drawn\");\n        require(balanceOf(msg.sender, 0) <= maxBalance, \"Sale would exceed max balance\");\n        token.transferFrom(msg.sender, address(this), mintPrice);\n        mint(msg.sender, 0, maxMint, \"0x00\");\n        _numAvailableTokens = _numAvailableTokens.sub(1);\n    }\n\n    function burnTicketForAddress(uint256 typeId, uint256 amount, address burnTokenAddress)\n        external\n    {\n        _burn(burnTokenAddress, typeId, amount);\n    }\n\n    //only owner\n    function flipSaleActive() public onlyOwner {\n        _isSaleActive = !_isSaleActive;\n    }\n\n    function flipReveal() public onlyOwner {\n        _revealed = !_revealed;\n    }\n\n    function setMintPrice(uint256 _mintPrice) public onlyOwner {\n        mintPrice = _mintPrice;\n    }\n\n    function setStartTime(string memory _unixTimestamp) public onlyOwner {\n        startTime = _unixTimestamp;\n    }\n\n    function setNotRevealedURI(string memory _notRevealedURI) public onlyOwner {\n        notRevealedUri = _notRevealedURI;\n    }\n\n    function setBaseURI(string memory _newBaseURI) public onlyOwner {\n        baseURI = _newBaseURI;\n    }\n\n    function setBaseExtension(string memory _newBaseExtension)\n        public\n        onlyOwner\n    {\n        baseExtension = _newBaseExtension;\n    }\n\n    function setMaxBalance(uint256 _maxBalance) public onlyOwner {\n        maxBalance = _maxBalance;\n    }\n\n    function setMaxMint(uint256 _maxMint) public onlyOwner {\n        maxMint = _maxMint;\n    }\n\n    function withdraw(address to) public onlyOwner {\n        uint256 balance = address(this).balance;\n        payable(to).transfer(balance);\n    }\n}",
  "sourcePath": "/Users/karenachung/Desktop/nft-zoo-ticket/contracts/Ticket.sol",
  "compiler": {
    "name": "solc",
    "version": "0.8.14+commit.80d49f37.Emscripten.clang"
  },
  "schemaVersion": "3.4.7",
  "updatedAt": "2022-06-30T04:00:21.007Z",
  "devdoc": {
    "kind": "dev",
    "methods": {
      "balanceOf(address,uint256)": {
        "details": "See {IERC1155-balanceOf}. Requirements: - `account` cannot be the zero address."
      },
      "balanceOfBatch(address[],uint256[])": {
        "details": "See {IERC1155-balanceOfBatch}. Requirements: - `accounts` and `ids` must have the same length."
      },
      "isApprovedForAll(address,address)": {
        "details": "See {IERC1155-isApprovedForAll}."
      },
      "owner()": {
        "details": "Returns the address of the current owner."
      },
      "paused()": {
        "details": "Returns true if the contract is paused, and false otherwise."
      },
      "renounceOwnership()": {
        "details": "Leaves the contract without owner. It will not be possible to call `onlyOwner` functions anymore. Can only be called by the current owner. NOTE: Renouncing ownership will leave the contract without an owner, thereby removing any functionality that is only available to the owner."
      },
      "safeBatchTransferFrom(address,address,uint256[],uint256[],bytes)": {
        "details": "See {IERC1155-safeBatchTransferFrom}."
      },
      "safeTransferFrom(address,address,uint256,uint256,bytes)": {
        "details": "See {IERC1155-safeTransferFrom}."
      },
      "setApprovalForAll(address,bool)": {
        "details": "See {IERC1155-setApprovalForAll}."
      },
      "supportsInterface(bytes4)": {
        "details": "See {IERC165-supportsInterface}."
      },
      "transferOwnership(address)": {
        "details": "Transfers ownership of the contract to a new account (`newOwner`). Can only be called by the current owner."
      }
    },
    "version": 1
  },
  "userdoc": {
    "kind": "user",
    "methods": {},
    "version": 1
  }
}